{
  "_format": "hh-sol-artifact-1",
  "contractName": "TrustRegistry",
  "sourceName": "contracts/TrustRegistry.sol",
  "abi": [
    {
      "inputs": [],
      "stateMutability": "nonpayable",
      "type": "constructor"
    },
    {
      "inputs": [
        {
          "internalType": "address",
          "name": "owner",
          "type": "address"
        }
      ],
      "name": "OwnableInvalidOwner",
      "type": "error"
    },
    {
      "inputs": [
        {
          "internalType": "address",
          "name": "account",
          "type": "address"
        }
      ],
      "name": "OwnableUnauthorizedAccount",
      "type": "error"
    },
    {
      "anonymous": false,
      "inputs": [
        {
          "indexed": true,
          "internalType": "address",
          "name": "previousOwner",
          "type": "address"
        },
        {
          "indexed": true,
          "internalType": "address",
          "name": "newOwner",
          "type": "address"
        }
      ],
      "name": "OwnershipTransferStarted",
      "type": "event"
    },
    {
      "anonymous": false,
      "inputs": [
        {
          "indexed": true,
          "internalType": "address",
          "name": "previousOwner",
          "type": "address"
        },
        {
          "indexed": true,
          "internalType": "address",
          "name": "newOwner",
          "type": "address"
        }
      ],
      "name": "OwnershipTransferred",
      "type": "event"
    },
    {
      "anonymous": false,
      "inputs": [
        {
          "indexed": true,
          "internalType": "address",
          "name": "wallet",
          "type": "address"
        },
        {
          "indexed": false,
          "internalType": "uint256",
          "name": "oldScore",
          "type": "uint256"
        },
        {
          "indexed": false,
          "internalType": "uint256",
          "name": "newScore",
          "type": "uint256"
        },
        {
          "indexed": false,
          "internalType": "string",
          "name": "reason",
          "type": "string"
        }
      ],
      "name": "ScoreUpdated",
      "type": "event"
    },
    {
      "anonymous": false,
      "inputs": [
        {
          "indexed": true,
          "internalType": "address",
          "name": "updater",
          "type": "address"
        }
      ],
      "name": "UpdaterAdded",
      "type": "event"
    },
    {
      "anonymous": false,
      "inputs": [
        {
          "indexed": true,
          "internalType": "address",
          "name": "updater",
          "type": "address"
        }
      ],
      "name": "UpdaterRemoved",
      "type": "event"
    },
    {
      "anonymous": false,
      "inputs": [
        {
          "indexed": true,
          "internalType": "address",
          "name": "wallet",
          "type": "address"
        },
        {
          "indexed": false,
          "internalType": "uint256",
          "name": "score",
          "type": "uint256"
        }
      ],
      "name": "WalletInitialized",
      "type": "event"
    },
    {
      "inputs": [],
      "name": "ARBITRATOR_SLASH_DECREMENT",
      "outputs": [
        {
          "internalType": "uint256",
          "name": "",
          "type": "uint256"
        }
      ],
      "stateMutability": "view",
      "type": "function"
    },
    {
      "inputs": [],
      "name": "DECREMENT",
      "outputs": [
        {
          "internalType": "uint256",
          "name": "",
          "type": "uint256"
        }
      ],
      "stateMutability": "view",
      "type": "function"
    },
    {
      "inputs": [],
      "name": "INCREMENT",
      "outputs": [
        {
          "internalType": "uint256",
          "name": "",
          "type": "uint256"
        }
      ],
      "stateMutability": "view",
      "type": "function"
    },
    {
      "inputs": [],
      "name": "INITIAL_SCORE",
      "outputs": [
        {
          "internalType": "uint256",
          "name": "",
          "type": "uint256"
        }
      ],
      "stateMutability": "view",
      "type": "function"
    },
    {
      "inputs": [],
      "name": "MAX_SCORE",
      "outputs": [
        {
          "internalType": "uint256",
          "name": "",
          "type": "uint256"
        }
      ],
      "stateMutability": "view",
      "type": "function"
    },
    {
      "inputs": [],
      "name": "acceptOwnership",
      "outputs": [],
      "stateMutability": "nonpayable",
      "type": "function"
    },
    {
      "inputs": [
        {
          "internalType": "address",
          "name": "updater",
          "type": "address"
        }
      ],
      "name": "addUpdater",
      "outputs": [],
      "stateMutability": "nonpayable",
      "type": "function"
    },
    {
      "inputs": [
        {
          "internalType": "address",
          "name": "wallet",
          "type": "address"
        }
      ],
      "name": "getEffectiveScore",
      "outputs": [
        {
          "internalType": "uint256",
          "name": "",
          "type": "uint256"
        }
      ],
      "stateMutability": "view",
      "type": "function"
    },
    {
      "inputs": [
        {
          "internalType": "address",
          "name": "wallet",
          "type": "address"
        }
      ],
      "name": "getScore",
      "outputs": [
        {
          "internalType": "uint256",
          "name": "",
          "type": "uint256"
        }
      ],
      "stateMutability": "view",
      "type": "function"
    },
    {
      "inputs": [
        {
          "internalType": "address",
          "name": "wallet",
          "type": "address"
        }
      ],
      "name": "getTrustLevel",
      "outputs": [
        {
          "internalType": "string",
          "name": "",
          "type": "string"
        }
      ],
      "stateMutability": "view",
      "type": "function"
    },
    {
      "inputs": [
        {
          "internalType": "address",
          "name": "wallet",
          "type": "address"
        }
      ],
      "name": "initWallet",
      "outputs": [],
      "stateMutability": "nonpayable",
      "type": "function"
    },
    {
      "inputs": [
        {
          "internalType": "address",
          "name": "",
          "type": "address"
        }
      ],
      "name": "isAuthorizedUpdater",
      "outputs": [
        {
          "internalType": "bool",
          "name": "",
          "type": "bool"
        }
      ],
      "stateMutability": "view",
      "type": "function"
    },
    {
      "inputs": [],
      "name": "owner",
      "outputs": [
        {
          "internalType": "address",
          "name": "",
          "type": "address"
        }
      ],
      "stateMutability": "view",
      "type": "function"
    },
    {
      "inputs": [],
      "name": "pendingOwner",
      "outputs": [
        {
          "internalType": "address",
          "name": "",
          "type": "address"
        }
      ],
      "stateMutability": "view",
      "type": "function"
    },
    {
      "inputs": [
        {
          "internalType": "address",
          "name": "wallet",
          "type": "address"
        },
        {
          "internalType": "address",
          "name": "",
          "type": "address"
        },
        {
          "internalType": "string",
          "name": "",
          "type": "string"
        },
        {
          "internalType": "uint256",
          "name": "",
          "type": "uint256"
        }
      ],
      "name": "recordAnomaly",
      "outputs": [],
      "stateMutability": "nonpayable",
      "type": "function"
    },
    {
      "inputs": [
        {
          "internalType": "address",
          "name": "arbitrator",
          "type": "address"
        },
        {
          "internalType": "string",
          "name": "reason",
          "type": "string"
        }
      ],
      "name": "recordArbitratorSlash",
      "outputs": [],
      "stateMutability": "nonpayable",
      "type": "function"
    },
    {
      "inputs": [
        {
          "internalType": "address",
          "name": "wallet",
          "type": "address"
        },
        {
          "internalType": "address",
          "name": "",
          "type": "address"
        },
        {
          "internalType": "string",
          "name": "",
          "type": "string"
        },
        {
          "internalType": "uint256",
          "name": "",
          "type": "uint256"
        }
      ],
      "name": "recordSuccess",
      "outputs": [],
      "stateMutability": "nonpayable",
      "type": "function"
    },
    {
      "inputs": [
        {
          "internalType": "address",
          "name": "updater",
          "type": "address"
        }
      ],
      "name": "removeUpdater",
      "outputs": [],
      "stateMutability": "nonpayable",
      "type": "function"
    },
    {
      "inputs": [],
      "name": "renounceOwnership",
      "outputs": [],
      "stateMutability": "nonpayable",
      "type": "function"
    },
    {
      "inputs": [
        {
          "internalType": "address",
          "name": "newOwner",
          "type": "address"
        }
      ],
      "name": "transferOwnership",
      "outputs": [],
      "stateMutability": "nonpayable",
      "type": "function"
    }
  ],
  "bytecode": "0x608060405234801561000f575f80fd5b50338061003557604051631e4fbdf760e01b81525f600482015260240160405180910390fd5b61003e8161005d565b50335f908152600460205260409020805460ff191660011790556100c8565b600180546001600160a01b031916905561007681610079565b50565b5f80546001600160a01b038381166001600160a01b0319831681178455604051919092169283917f8be0079c531659141344cd1fd0a4f28419497f9722a3daafe3b4186f6b6457e09190a35050565b610c9c806100d55f395ff3fe608060405234801561000f575f80fd5b5060043610610127575f3560e01c80639da8be21116100a9578063d47875d01161006e578063d47875d01461015c578063de33037314610264578063e30c39781461026c578063f282f5091461027d578063f2fde38b14610285575f80fd5b80639da8be21146101fc578063a2534c971461020f578063b865bccc14610217578063ce7f0cc314610249578063ce8c00b514610251575f80fd5b8063715018a6116100ef578063715018a6146101a257806379ba5097146101aa5780638da5cb5b146101b257806396d62cfb146101d65780639a1f7f8e146101e9575f80fd5b806304b07a5e1461012b57806327ff62231461014057806329aad6d81461015c57806343d24a5e1461016f5780636a4b783d14610182575b5f80fd5b61013e610139366004610a41565b610298565b005b6101496103e881565b6040519081526020015b60405180910390f35b61014961016a366004610a41565b6102e8565b61013e61017d366004610a41565b610329565b610195610190366004610a41565b61037c565b6040516101539190610a61565b61013e6104c2565b61013e6104d5565b5f546001600160a01b03165b6040516001600160a01b039091168152602001610153565b61013e6101e4366004610af2565b61051e565b61013e6101f7366004610b41565b610632565b61013e61020a366004610a41565b61076c565b610149601481565b610239610225366004610a41565b60046020525f908152604090205460ff1681565b6040519015158152602001610153565b610149600581565b61013e61025f366004610b41565b6107f1565b610149606481565b6001546001600160a01b03166101be565b610149603281565b61013e610293366004610a41565b610927565b6102a0610997565b6001600160a01b0381165f81815260046020526040808220805460ff19169055517f209d819a9ec655e89f2b2b9d65c8a78879b45a8f20d1941d69c5fe6dc21bcb629190a250565b6001600160a01b0381165f9081526003602052604081205460ff1661030e57505f919050565b506001600160a01b03165f9081526002602052604090205490565b610331610997565b6001600160a01b0381165f81815260046020526040808220805460ff19166001179055517f23a38f89c31ff6329bf86f3863cfa2ad8fc1462c40dbf907dbbebb8f9cb237ec9190a250565b6001600160a01b0381165f908152600260209081526040808320546003909252909120546060919060ff166103d557505060408051808201909152600c81526b70726f626174696f6e61727960a01b6020820152919050565b606481101561040857505060408051808201909152600c81526b70726f626174696f6e61727960a01b6020820152919050565b61012c81101561043a57505060408051808201909152600a8152691c995cdd1c9a58dd195960b21b6020820152919050565b61025881101561046a5750506040805180820190915260088152671cdd185b99185c9960c21b6020820152919050565b61032081101561049a575050604080518082019091526008815267195b195d985d195960c21b6020820152919050565b505060408051808201909152600a8152696175746f6e6f6d6f757360b01b6020820152919050565b6104ca610997565b6104d35f6109c3565b565b60015433906001600160a01b031681146105125760405163118cdaa760e01b81526001600160a01b03821660048201526024015b60405180910390fd5b61051b816109c3565b50565b335f9081526004602052604090205460ff1661054c5760405162461bcd60e51b815260040161050990610ba5565b6001600160a01b0383165f9081526003602052604090205460ff1661059c576001600160a01b0383165f908152600360209081526040808320805460ff1916600117905560029091529020606490555b6001600160a01b0383165f9081526002602052604081205490603282106105cd576105c8603283610bfe565b6105cf565b5f5b6001600160a01b0386165f818152600260205260409081902083905551919250907f7e2add12a328a86680ec5cfd32c70eaa4590ecb9df3e614e146da05d547a5e3090610623908590859089908990610c17565b60405180910390a25050505050565b335f9081526004602052604090205460ff166106605760405162461bcd60e51b815260040161050990610ba5565b6001600160a01b0385165f9081526003602052604090205460ff166106b0576001600160a01b0385165f908152600360209081526040808320805460ff1916600117905560029091529020606490555b6001600160a01b0385165f9081526002602052604081205490601482106106e1576106dc601483610bfe565b6106e3565b5f5b6001600160a01b0388165f818152600260205260409081902083905551919250907f7e2add12a328a86680ec5cfd32c70eaa4590ecb9df3e614e146da05d547a5e309061075b9085908590918252602082015260606040820181905260079082015266616e6f6d616c7960c81b608082015260a00190565b60405180910390a250505050505050565b6001600160a01b0381165f9081526003602052604090205460ff1661051b576001600160a01b0381165f818152600360209081526040808320805460ff19166001179055600282529182902060649081905591519182527f3f669bad8f962150ec44776b24d84ea7746740070e5b124889da3a3dc42135b9910160405180910390a250565b335f9081526004602052604090205460ff1661081f5760405162461bcd60e51b815260040161050990610ba5565b6001600160a01b0385165f9081526003602052604090205460ff1661086f576001600160a01b0385165f908152600360209081526040808320805460ff1916600117905560029091529020606490555b6001600160a01b0385165f90815260026020526040812054906103e8610896600584610c53565b116108ab576108a6600583610c53565b6108af565b6103e85b6001600160a01b0388165f818152600260205260409081902083905551919250907f7e2add12a328a86680ec5cfd32c70eaa4590ecb9df3e614e146da05d547a5e309061075b90859085909182526020820152606060408201819052600790820152667375636365737360c81b608082015260a00190565b61092f610997565b600180546001600160a01b0383166001600160a01b0319909116811790915561095f5f546001600160a01b031690565b6001600160a01b03167f38d16b8cac22d99fc7c124b9cd0de2d3fa1faef420bfe791d8c362d765e2270060405160405180910390a350565b5f546001600160a01b031633146104d35760405163118cdaa760e01b8152336004820152602401610509565b600180546001600160a01b031916905561051b815f80546001600160a01b038381166001600160a01b0319831681178455604051919092169283917f8be0079c531659141344cd1fd0a4f28419497f9722a3daafe3b4186f6b6457e09190a35050565b80356001600160a01b0381168114610a3c575f80fd5b919050565b5f60208284031215610a51575f80fd5b610a5a82610a26565b9392505050565b5f602080835283518060208501525f5b81811015610a8d57858101830151858201604001528201610a71565b505f604082860101526040601f19601f8301168501019250505092915050565b5f8083601f840112610abd575f80fd5b50813567ffffffffffffffff811115610ad4575f80fd5b602083019150836020828501011115610aeb575f80fd5b9250929050565b5f805f60408486031215610b04575f80fd5b610b0d84610a26565b9250602084013567ffffffffffffffff811115610b28575f80fd5b610b3486828701610aad565b9497909650939450505050565b5f805f805f60808688031215610b55575f80fd5b610b5e86610a26565b9450610b6c60208701610a26565b9350604086013567ffffffffffffffff811115610b87575f80fd5b610b9388828901610aad565b96999598509660600135949350505050565b60208082526025908201527f547275737452656769737472793a206e6f7420617574686f72697a65642075706040820152643230ba32b960d91b606082015260800190565b634e487b7160e01b5f52601160045260245ffd5b81810381811115610c1157610c11610bea565b92915050565b84815283602082015260606040820152816060820152818360808301375f818301608090810191909152601f909201601f191601019392505050565b80820180821115610c1157610c11610bea56fea26469706673582212205fb3809b01a43eafb909e38bb31c1edaed379729e7ee5178065eba36e7cb84f164736f6c63430008180033",
  "linkReferences": {},
  "deployedLinkReferences": {}
}