{
  "_format": "hh-sol-artifact-1",
  "contractName": "IntentAttestation",
  "sourceName": "contracts/IntentAttestation.sol",
  "abi": [
    {
      "anonymous": false,
      "inputs": [
        {
          "indexed": true,
          "internalType": "bytes32",
          "name": "attestationId",
          "type": "bytes32"
        },
        {
          "indexed": true,
          "internalType": "address",
          "name": "wallet",
          "type": "address"
        }
      ],
      "name": "AttestationConsumed",
      "type": "event"
    },
    {
      "anonymous": false,
      "inputs": [
        {
          "indexed": true,
          "internalType": "bytes32",
          "name": "attestationId",
          "type": "bytes32"
        },
        {
          "indexed": true,
          "internalType": "address",
          "name": "wallet",
          "type": "address"
        },
        {
          "indexed": false,
          "internalType": "string",
          "name": "action",
          "type": "string"
        },
        {
          "indexed": false,
          "internalType": "address",
          "name": "recipient",
          "type": "address"
        },
        {
          "indexed": false,
          "internalType": "uint256",
          "name": "amount",
          "type": "uint256"
        },
        {
          "indexed": false,
          "internalType": "address",
          "name": "token",
          "type": "address"
        },
        {
          "indexed": false,
          "internalType": "uint256",
          "name": "expiresAt",
          "type": "uint256"
        }
      ],
      "name": "AttestationCreated",
      "type": "event"
    },
    {
      "inputs": [
        {
          "internalType": "bytes32",
          "name": "attestationId",
          "type": "bytes32"
        },
        {
          "internalType": "string",
          "name": "action",
          "type": "string"
        },
        {
          "internalType": "string",
          "name": "reason",
          "type": "string"
        },
        {
          "internalType": "address",
          "name": "recipient",
          "type": "address"
        },
        {
          "internalType": "uint256",
          "name": "amount",
          "type": "uint256"
        },
        {
          "internalType": "address",
          "name": "token",
          "type": "address"
        },
        {
          "internalType": "uint256",
          "name": "expiresAt",
          "type": "uint256"
        }
      ],
      "name": "attest",
      "outputs": [],
      "stateMutability": "nonpayable",
      "type": "function"
    },
    {
      "inputs": [
        {
          "internalType": "bytes32",
          "name": "attestationId",
          "type": "bytes32"
        }
      ],
      "name": "consume",
      "outputs": [],
      "stateMutability": "nonpayable",
      "type": "function"
    },
    {
      "inputs": [
        {
          "internalType": "bytes32",
          "name": "attestationId",
          "type": "bytes32"
        }
      ],
      "name": "getAttestation",
      "outputs": [
        {
          "internalType": "bytes32",
          "name": "id",
          "type": "bytes32"
        },
        {
          "internalType": "address",
          "name": "wallet",
          "type": "address"
        },
        {
          "internalType": "string",
          "name": "action",
          "type": "string"
        },
        {
          "internalType": "string",
          "name": "reason",
          "type": "string"
        },
        {
          "internalType": "address",
          "name": "recipient",
          "type": "address"
        },
        {
          "internalType": "uint256",
          "name": "amount",
          "type": "uint256"
        },
        {
          "internalType": "address",
          "name": "token",
          "type": "address"
        },
        {
          "internalType": "uint256",
          "name": "timestamp",
          "type": "uint256"
        }
      ],
      "stateMutability": "view",
      "type": "function"
    },
    {
      "inputs": [
        {
          "internalType": "bytes32",
          "name": "attestationId",
          "type": "bytes32"
        }
      ],
      "name": "isExpired",
      "outputs": [
        {
          "internalType": "bool",
          "name": "",
          "type": "bool"
        }
      ],
      "stateMutability": "view",
      "type": "function"
    },
    {
      "inputs": [
        {
          "internalType": "bytes32",
          "name": "",
          "type": "bytes32"
        }
      ],
      "name": "used",
      "outputs": [
        {
          "internalType": "bool",
          "name": "",
          "type": "bool"
        }
      ],
      "stateMutability": "view",
      "type": "function"
    },
    {
      "inputs": [
        {
          "internalType": "bytes32",
          "name": "attestationId",
          "type": "bytes32"
        },
        {
          "internalType": "address",
          "name": "wallet",
          "type": "address"
        },
        {
          "internalType": "address",
          "name": "recipient",
          "type": "address"
        },
        {
          "internalType": "uint256",
          "name": "amount",
          "type": "uint256"
        },
        {
          "internalType": "address",
          "name": "token",
          "type": "address"
        }
      ],
      "name": "verify",
      "outputs": [
        {
          "internalType": "bool",
          "name": "",
          "type": "bool"
        }
      ],
      "stateMutability": "view",
      "type": "function"
    }
  ],
  "bytecode": "0x608060405234801561000f575f80fd5b50610bee8061001d5f395ff3fe608060405234801561000f575f80fd5b5060043610610060575f3560e01c80630b21df24146100645780636db2feb21461008c578063a3112a641461009f578063af6f8c1b146100c6578063b07c411f146100db578063b5d91bcd146100fd575b5f80fd5b61007761007236600461080d565b610110565b60405190151581526020015b60405180910390f35b61007761009a366004610860565b6101f5565b6100b26100ad366004610860565b61023a565b6040516100839897969594939291906108ba565b6100d96100d4366004610860565b610425565b005b6100776100e9366004610860565b60026020525f908152604090205460ff1681565b6100d961010b366004610965565b610561565b5f8581526001602052604081205460ff1661012c57505f6101ec565b5f8681526002602052604090205460ff161561014957505f6101ec565b5f868152602081905260409020600801541580159061017757505f8681526020819052604090206008015442115b1561018357505f6101ec565b5f86815260208190526040902060018101546001600160a01b0387811691161480156101be575060048101546001600160a01b038681169116145b80156101cd5750838160050154145b80156101e8575060068101546001600160a01b038481169116145b9150505b95945050505050565b5f8181526001602052604081205460ff1661021157505f919050565b5f828152602081905260408120600801549081900361023257505f92915050565b421192915050565b5f8181526001602052604081205481906060908190839081908190819060ff166102ab5760405162461bcd60e51b815260206004820152601c60248201527f496e74656e744174746573746174696f6e3a206e6f7420666f756e640000000060448201526064015b60405180910390fd5b5f8981526020819052604090208054600182015460048301546005840154600685015460078601546002870180546001600160a01b0396871696919560038a019590831694909392169190869061030190610a0a565b80601f016020809104026020016040519081016040528092919081815260200182805461032d90610a0a565b80156103785780601f1061034f57610100808354040283529160200191610378565b820191905f5260205f20905b81548152906001019060200180831161035b57829003601f168201915b5050505050955084805461038b90610a0a565b80601f01602080910402602001604051908101604052809291908181526020018280546103b790610a0a565b80156104025780601f106103d957610100808354040283529160200191610402565b820191905f5260205f20905b8154815290600101906020018083116103e557829003601f168201915b505050505094509850985098509850985098509850985050919395975091939597565b5f8181526001602052604090205460ff166104725760405162461bcd60e51b815260206004820152600d60248201526c12504e881b9bdd08199bdd5b99609a1b60448201526064016102a2565b5f8181526002602052604090205460ff16156104c35760405162461bcd60e51b815260206004820152601060248201526f12504e88185b1c9958591e481d5cd95960821b60448201526064016102a2565b5f818152602081905260409020600101546001600160a01b0316331461051c5760405162461bcd60e51b815260206004820152600e60248201526d12504e881b9bdd081dd85b1b195d60921b60448201526064016102a2565b5f81815260026020526040808220805460ff1916600117905551339183917fe71ee6a9ebed140d9b420d8d334745c1d877a99f472ffa59e3af086742efd65b9190a350565b5f8981526001602052604090205460ff16156105c95760405162461bcd60e51b815260206004820152602160248201527f496e74656e744174746573746174696f6e3a20616c72656164792065786973746044820152607360f81b60648201526084016102a2565b8015806105d557504281115b6106165760405162461bcd60e51b815260206004820152601260248201527112504e88195e1c1a5c9e481a5b881c185cdd60721b60448201526064016102a2565b6040518061012001604052808a8152602001336001600160a01b0316815260200189898080601f0160208091040260200160405190810160405280939291908181526020018383808284375f92019190915250505090825250604080516020601f8a01819004810282018101909252888152918101919089908990819084018382808284375f9201829052509385525050506001600160a01b038781166020808501919091526040808501899052878316606086015242608086015260a09094018690528d83528281529183902084518155918401516001830180546001600160a01b031916919092161790559082015160028201906107169082610aa2565b506060820151600382019061072b9082610aa2565b5060808201516004820180546001600160a01b039283166001600160a01b03199182161790915560a0840151600584015560c084015160068401805491909316911617905560e08201516007820155610100909101516008909101555f89815260016020819052604091829020805460ff191690911790555133908a907f29951d7f77a0da2c4bdcda87726e6ba33245e95e7ef39201ec575662055d242e906107df908c908c908a908a908a908a90610b62565b60405180910390a3505050505050505050565b80356001600160a01b0381168114610808575f80fd5b919050565b5f805f805f60a08688031215610821575f80fd5b85359450610831602087016107f2565b935061083f604087016107f2565b925060608601359150610854608087016107f2565b90509295509295909350565b5f60208284031215610870575f80fd5b5035919050565b5f81518084525f5b8181101561089b5760208185018101518683018201520161087f565b505f602082860101526020601f19601f83011685010191505092915050565b8881526001600160a01b038881166020830152610100604083018190525f916108e58483018b610877565b915083820360608501526108f9828a610877565b978116608085015260a084019690965250509190921660c082015260e00152949350505050565b5f8083601f840112610930575f80fd5b50813567ffffffffffffffff811115610947575f80fd5b60208301915083602082850101111561095e575f80fd5b9250929050565b5f805f805f805f805f60e08a8c03121561097d575f80fd5b8935985060208a013567ffffffffffffffff8082111561099b575f80fd5b6109a78d838e01610920565b909a50985060408c01359150808211156109bf575f80fd5b506109cc8c828d01610920565b90975095506109df905060608b016107f2565b935060808a013592506109f460a08b016107f2565b915060c08a013590509295985092959850929598565b600181811c90821680610a1e57607f821691505b602082108103610a3c57634e487b7160e01b5f52602260045260245ffd5b50919050565b634e487b7160e01b5f52604160045260245ffd5b601f821115610a9d57805f5260205f20601f840160051c81016020851015610a7b5750805b601f840160051c820191505b81811015610a9a575f8155600101610a87565b50505b505050565b815167ffffffffffffffff811115610abc57610abc610a42565b610ad081610aca8454610a0a565b84610a56565b602080601f831160018114610b03575f8415610aec5750858301515b5f19600386901b1c1916600185901b178555610b5a565b5f85815260208120601f198616915b82811015610b3157888601518255948401946001909101908401610b12565b5085821015610b4e57878501515f19600388901b60f8161c191681555b505060018460011b0185555b505050505050565b60a081528560a0820152858760c08301375f60c08783018101919091526001600160a01b03958616602083015260408201949094529190931660608201526080810192909252601f909201601f1916010191905056fea26469706673582212201166c0e38c09cf4b45e3a17a5af2f46c4ff7fdff8b66136c25f3bb547a4183b564736f6c63430008180033",
  "linkReferences": {},
  "deployedLinkReferences": {}
}