{
  "_format": "hh-sol-artifact-1",
  "contractName": "SettlementCoordinator",
  "sourceName": "contracts/SettlementCoordinator.sol",
  "abi": [
    {
      "inputs": [
        {
          "internalType": "address",
          "name": "token",
          "type": "address"
        }
      ],
      "name": "SafeERC20FailedOperation",
      "type": "error"
    },
    {
      "anonymous": false,
      "inputs": [
        {
          "indexed": true,
          "internalType": "bytes32",
          "name": "proposalId",
          "type": "bytes32"
        }
      ],
      "name": "ProposalAccepted",
      "type": "event"
    },
    {
      "anonymous": false,
      "inputs": [
        {
          "indexed": true,
          "internalType": "bytes32",
          "name": "proposalId",
          "type": "bytes32"
        },
        {
          "indexed": true,
          "internalType": "address",
          "name": "from",
          "type": "address"
        },
        {
          "indexed": true,
          "internalType": "address",
          "name": "to",
          "type": "address"
        },
        {
          "indexed": false,
          "internalType": "uint256",
          "name": "amount",
          "type": "uint256"
        },
        {
          "indexed": false,
          "internalType": "address",
          "name": "token",
          "type": "address"
        }
      ],
      "name": "ProposalCreated",
      "type": "event"
    },
    {
      "anonymous": false,
      "inputs": [
        {
          "indexed": true,
          "internalType": "bytes32",
          "name": "proposalId",
          "type": "bytes32"
        },
        {
          "indexed": false,
          "internalType": "uint256",
          "name": "amount",
          "type": "uint256"
        }
      ],
      "name": "ProposalExecuted",
      "type": "event"
    },
    {
      "anonymous": false,
      "inputs": [
        {
          "indexed": true,
          "internalType": "bytes32",
          "name": "proposalId",
          "type": "bytes32"
        }
      ],
      "name": "ProposalExpired",
      "type": "event"
    },
    {
      "anonymous": false,
      "inputs": [
        {
          "indexed": true,
          "internalType": "bytes32",
          "name": "proposalId",
          "type": "bytes32"
        },
        {
          "indexed": false,
          "internalType": "string",
          "name": "reason",
          "type": "string"
        }
      ],
      "name": "ProposalRejected",
      "type": "event"
    },
    {
      "inputs": [],
      "name": "EXECUTION_WINDOW",
      "outputs": [
        {
          "internalType": "uint256",
          "name": "",
          "type": "uint256"
        }
      ],
      "stateMutability": "view",
      "type": "function"
    },
    {
      "inputs": [
        {
          "internalType": "bytes32",
          "name": "proposalId",
          "type": "bytes32"
        }
      ],
      "name": "accept",
      "outputs": [],
      "stateMutability": "nonpayable",
      "type": "function"
    },
    {
      "inputs": [
        {
          "internalType": "bytes32",
          "name": "proposalId",
          "type": "bytes32"
        }
      ],
      "name": "checkExpiry",
      "outputs": [],
      "stateMutability": "nonpayable",
      "type": "function"
    },
    {
      "inputs": [
        {
          "internalType": "bytes32",
          "name": "proposalId",
          "type": "bytes32"
        }
      ],
      "name": "execute",
      "outputs": [],
      "stateMutability": "payable",
      "type": "function"
    },
    {
      "inputs": [
        {
          "internalType": "bytes32",
          "name": "proposalId",
          "type": "bytes32"
        }
      ],
      "name": "expireAccepted",
      "outputs": [],
      "stateMutability": "nonpayable",
      "type": "function"
    },
    {
      "inputs": [
        {
          "internalType": "bytes32",
          "name": "proposalId",
          "type": "bytes32"
        }
      ],
      "name": "getProposal",
      "outputs": [
        {
          "internalType": "address",
          "name": "fromWallet",
          "type": "address"
        },
        {
          "internalType": "address",
          "name": "toWallet",
          "type": "address"
        },
        {
          "internalType": "uint256",
          "name": "amount",
          "type": "uint256"
        },
        {
          "internalType": "address",
          "name": "token",
          "type": "address"
        },
        {
          "internalType": "bytes32",
          "name": "intentId",
          "type": "bytes32"
        },
        {
          "internalType": "uint256",
          "name": "expiresAt",
          "type": "uint256"
        },
        {
          "internalType": "uint256",
          "name": "acceptedAt",
          "type": "uint256"
        },
        {
          "internalType": "enum SettlementCoordinator.ProposalStatus",
          "name": "status",
          "type": "uint8"
        },
        {
          "internalType": "string",
          "name": "rejectionReason",
          "type": "string"
        }
      ],
      "stateMutability": "view",
      "type": "function"
    },
    {
      "inputs": [
        {
          "internalType": "address",
          "name": "fromWallet",
          "type": "address"
        },
        {
          "internalType": "address",
          "name": "toWallet",
          "type": "address"
        },
        {
          "internalType": "uint256",
          "name": "amount",
          "type": "uint256"
        },
        {
          "internalType": "address",
          "name": "token",
          "type": "address"
        },
        {
          "internalType": "bytes32",
          "name": "intentId",
          "type": "bytes32"
        },
        {
          "internalType": "uint256",
          "name": "expiresAt",
          "type": "uint256"
        }
      ],
      "name": "propose",
      "outputs": [
        {
          "internalType": "bytes32",
          "name": "proposalId",
          "type": "bytes32"
        }
      ],
      "stateMutability": "nonpayable",
      "type": "function"
    },
    {
      "inputs": [
        {
          "internalType": "bytes32",
          "name": "proposalId",
          "type": "bytes32"
        },
        {
          "internalType": "string",
          "name": "reason",
          "type": "string"
        }
      ],
      "name": "reject",
      "outputs": [],
      "stateMutability": "nonpayable",
      "type": "function"
    }
  ],
  "bytecode": "0x608060405234801561000f575f80fd5b506113908061001d5f395ff3fe608060405260043610610079575f3560e01c8063a1df190e1161004c578063a1df190e1461011a578063e4725ba114610139578063e751f27114610158578063fb1298c11461016b575f80fd5b806315f93bbb1461007d5780633e65164a146100af578063430694cf146100c55780635df9758c146100f9575b5f80fd5b348015610088575f80fd5b5061009c610097366004610e43565b61018a565b6040519081526020015b60405180910390f35b3480156100ba575f80fd5b5061009c62093a8081565b3480156100d0575f80fd5b506100e46100df366004610e9e565b610476565b6040516100a699989796959493929190610ec9565b348015610104575f80fd5b50610118610113366004610e9e565b6105b2565b005b348015610125575f80fd5b50610118610134366004610f83565b6106ba565b348015610144575f80fd5b50610118610153366004610e9e565b6107b2565b610118610166366004610e9e565b6108e2565b348015610176575f80fd5b50610118610185366004610e9e565b610c9b565b5f336001600160a01b038816146101e85760405162461bcd60e51b815260206004820152601d60248201527f53433a2063616c6c6572206d7573742062652066726f6d57616c6c657400000060448201526064015b60405180910390fd5b6040516bffffffffffffffffffffffff19606089811b8216602084015288811b821660348401526048830188905286901b166068820152607c810184905242609c82015260bc0160408051601f1981840301815291815281516020928301205f818152600190935291205490915060ff16156102b55760405162461bcd60e51b815260206004820152602660248201527f536574746c656d656e74436f6f7264696e61746f723a2070726f706f73616c2060448201526565786973747360d01b60648201526084016101df565b604051806101400160405280828152602001886001600160a01b03168152602001876001600160a01b03168152602001868152602001856001600160a01b031681526020018481526020018381526020015f81526020015f600481111561031e5761031e610eb5565b815260408051602080820183525f80835293810191909152848352828152918190208351815591830151600180840180546001600160a01b03199081166001600160a01b039485161790915592850151600285018054851691841691909117905560608501516003850155608085015160048086018054909516919093161790925560a0840151600584015560c0840151600684015560e084015160078401556101008401516008840180549193909260ff199092169184908111156103e6576103e6610eb5565b02179055506101208201516009820190610400908261108f565b5050505f81815260016020818152604092839020805460ff191690921790915581518781526001600160a01b038781169282019290925288821692918a169184917f26db40acee6e31cf272cafd60138c99bf56896592756ece9b0bbb07c4cce368c910160405180910390a49695505050505050565b5f81815260016020526040812054819081908190819081908190819060609060ff166104b45760405162461bcd60e51b81526004016101df9061114f565b5f8a8152602081905260409020600181015460028201546003830154600484015460058501546006860154600787015460088801546009890180546001600160a01b03998a1699988916989096169560ff9092169181906105149061100c565b80601f01602080910402602001604051908101604052809291908181526020018280546105409061100c565b801561058b5780601f106105625761010080835404028352916020019161058b565b820191905f5260205f20905b81548152906001019060200180831161056e57829003601f168201915b50505050509050995099509950995099509950995099509950509193959799909294969850565b5f8181526020818152604080832060019092529091205460ff166105e85760405162461bcd60e51b81526004016101df9061114f565b5f600882015460ff16600481111561060257610602610eb5565b1461061f5760405162461bcd60e51b81526004016101df90611184565b8060060154421161067d5760405162461bcd60e51b815260206004820152602260248201527f536574746c656d656e74436f6f7264696e61746f723a206e6f74206578706972604482015261195960f21b60648201526084016101df565b60088101805460ff1916600417905560405182907f58f98006a7f2f253f8ae8f8b7cec9008ca05359633561cd7c22f3005682d4a55905f90a25050565b5f8381526020818152604080832060019092529091205460ff166106f05760405162461bcd60e51b81526004016101df9061114f565b5f600882015460ff16600481111561070a5761070a610eb5565b146107275760405162461bcd60e51b81526004016101df90611184565b60028101546001600160a01b031633146107535760405162461bcd60e51b81526004016101df906111c6565b60088101805460ff191660021790556009810161077183858361120a565b50837febe3a04753891955f03c6d0877f7bf85641e9ea84d7d0db932d44d5fda30b70d84846040516107a49291906112c4565b60405180910390a250505050565b5f8181526020818152604080832060019092529091205460ff166107e85760405162461bcd60e51b81526004016101df9061114f565b5f600882015460ff16600481111561080257610802610eb5565b1461081f5760405162461bcd60e51b81526004016101df90611184565b80600601544211156108735760405162461bcd60e51b815260206004820152601e60248201527f536574746c656d656e74436f6f7264696e61746f723a2065787069726564000060448201526064016101df565b60028101546001600160a01b0316331461089f5760405162461bcd60e51b81526004016101df906111c6565b60088101805460ff1916600117905542600782015560405182907f942e1b58e86195262137610a19da111b7d2263eb4b95d67a856e77abc0ad6834905f90a25050565b5f8181526020818152604080832060019092529091205460ff166109185760405162461bcd60e51b81526004016101df9061114f565b6001600882015460ff16600481111561093357610933610eb5565b146109505760405162461bcd60e51b81526004016101df906112f2565b80600601544211156109a45760405162461bcd60e51b815260206004820152601e60248201527f536574746c656d656e74436f6f7264696e61746f723a2065787069726564000060448201526064016101df565b62093a8081600701546109b79190611335565b421115610a1e5760405162461bcd60e51b815260206004820152602f60248201527f536574746c656d656e74436f6f7264696e61746f723a20657865637574696f6e60448201526e081dda5b991bddc8195e1c1a5c9959608a1b60648201526084016101df565b60018101546001600160a01b03163314610a845760405162461bcd60e51b815260206004820152602160248201527f536574746c656d656e74436f6f7264696e61746f723a206e6f742073656e64656044820152603960f91b60648201526084016101df565b60088101805460ff1916600390811790915581015460405190815282907f120985525cfb78f6c03f96986f9687f49caf81e29350d21fa052e8c0df211ebb9060200160405180910390a260048101546001600160a01b0316610bf95780600301543414610b3f5760405162461bcd60e51b815260206004820152602360248201527f536574746c656d656e74436f6f7264696e61746f723a2077726f6e6720616d6f6044820152621d5b9d60ea1b60648201526084016101df565b600281015460038201546040515f926001600160a01b031691908381818185875af1925050503d805f8114610b8f576040519150601f19603f3d011682016040523d82523d5f602084013e610b94565b606091505b5050905080610bf45760405162461bcd60e51b815260206004820152602660248201527f536574746c656d656e74436f6f7264696e61746f723a207472616e736665722060448201526519985a5b195960d21b60648201526084016101df565b505050565b3415610c6d5760405162461bcd60e51b815260206004820152603a60248201527f536574746c656d656e74436f6f7264696e61746f723a20455448206e6f74206160448201527f6363657074656420666f7220746f6b656e2070726f706f73616c00000000000060648201526084016101df565b600281015460038201546004830154610c97926001600160a01b0391821692339290911690610d7f565b5050565b5f8181526020818152604080832060019092529091205460ff16610cd15760405162461bcd60e51b81526004016101df9061114f565b6001600882015460ff166004811115610cec57610cec610eb5565b14610d095760405162461bcd60e51b81526004016101df906112f2565b62093a808160070154610d1c9190611335565b421161067d5760405162461bcd60e51b815260206004820152602c60248201527f536574746c656d656e74436f6f7264696e61746f723a20657865637574696f6e60448201526b103bb4b73237bb9037b832b760a11b60648201526084016101df565b610d8d848484846001610dbb565b610db557604051635274afe760e01b81526001600160a01b03851660048201526024016101df565b50505050565b6040516323b872dd60e01b5f8181526001600160a01b038781166004528616602452604485905291602083606481808c5af1925060015f51148316610e17578383151615610e0b573d5f823e3d81fd5b5f883b113d1516831692505b604052505f60605295945050505050565b80356001600160a01b0381168114610e3e575f80fd5b919050565b5f805f805f8060c08789031215610e58575f80fd5b610e6187610e28565b9550610e6f60208801610e28565b945060408701359350610e8460608801610e28565b92506080870135915060a087013590509295509295509295565b5f60208284031215610eae575f80fd5b5035919050565b634e487b7160e01b5f52602160045260245ffd5b5f61012060018060a01b03808d1684526020818d1660208601528b6040860152818b1660608601528960808601528860a08601528760c086015260058710610f1f57634e487b7160e01b5f52602160045260245ffd5b8660e0860152826101008601528551915081838601525f92505b81831015610f5857858301810151858401610140015291820191610f39565b5061014091505f82828601015281601f19601f830116850101925050509a9950505050505050505050565b5f805f60408486031215610f95575f80fd5b83359250602084013567ffffffffffffffff80821115610fb3575f80fd5b818601915086601f830112610fc6575f80fd5b813581811115610fd4575f80fd5b876020828501011115610fe5575f80fd5b6020830194508093505050509250925092565b634e487b7160e01b5f52604160045260245ffd5b600181811c9082168061102057607f821691505b60208210810361103e57634e487b7160e01b5f52602260045260245ffd5b50919050565b601f821115610bf457805f5260205f20601f840160051c810160208510156110695750805b601f840160051c820191505b81811015611088575f8155600101611075565b5050505050565b815167ffffffffffffffff8111156110a9576110a9610ff8565b6110bd816110b7845461100c565b84611044565b602080601f8311600181146110f0575f84156110d95750858301515b5f19600386901b1c1916600185901b178555611147565b5f85815260208120601f198616915b8281101561111e578886015182559484019460019091019084016110ff565b508582101561113b57878501515f19600388901b60f8161c191681555b505060018460011b0185555b505050505050565b6020808252818101527f536574746c656d656e74436f6f7264696e61746f723a206e6f7420666f756e64604082015260600190565b60208082526022908201527f536574746c656d656e74436f6f7264696e61746f723a206e6f742070656e64696040820152616e6760f01b606082015260800190565b60208082526024908201527f536574746c656d656e74436f6f7264696e61746f723a206e6f742072656369706040820152631a595b9d60e21b606082015260800190565b67ffffffffffffffff83111561122257611222610ff8565b61123683611230835461100c565b83611044565b5f601f841160018114611267575f85156112505750838201355b5f19600387901b1c1916600186901b178355611088565b5f83815260208120601f198716915b828110156112965786850135825560209485019460019092019101611276565b50868210156112b2575f1960f88860031b161c19848701351681555b505060018560011b0183555050505050565b60208152816020820152818360408301375f818301604090810191909152601f909201601f19160101919050565b60208082526023908201527f536574746c656d656e74436f6f7264696e61746f723a206e6f742061636365706040820152621d195960ea1b606082015260800190565b8082018082111561135457634e487b7160e01b5f52601160045260245ffd5b9291505056fea2646970667358221220a889ae1efada0e74e319baf738a778b8c291616a4ff3d96c4ab45b5b5a2d0d8964736f6c63430008180033",
  "linkReferences": {},
  "deployedLinkReferences": {}
}