{
  "_format": "hh-sol-artifact-1",
  "contractName": "PolicyEngine",
  "sourceName": "contracts/PolicyEngine.sol",
  "abi": [
    {
      "anonymous": false,
      "inputs": [
        {
          "indexed": true,
          "internalType": "address",
          "name": "wallet",
          "type": "address"
        },
        {
          "indexed": false,
          "internalType": "string",
          "name": "category",
          "type": "string"
        },
        {
          "indexed": false,
          "internalType": "uint256",
          "name": "newCap",
          "type": "uint256"
        }
      ],
      "name": "CapReductionApplied",
      "type": "event"
    },
    {
      "anonymous": false,
      "inputs": [
        {
          "indexed": true,
          "internalType": "address",
          "name": "wallet",
          "type": "address"
        },
        {
          "indexed": false,
          "internalType": "string",
          "name": "category",
          "type": "string"
        },
        {
          "indexed": false,
          "internalType": "uint256",
          "name": "newCap",
          "type": "uint256"
        },
        {
          "indexed": false,
          "internalType": "uint256",
          "name": "effectiveAt",
          "type": "uint256"
        }
      ],
      "name": "CapReductionQueued",
      "type": "event"
    },
    {
      "anonymous": false,
      "inputs": [
        {
          "indexed": true,
          "internalType": "address",
          "name": "wallet",
          "type": "address"
        },
        {
          "indexed": false,
          "internalType": "string",
          "name": "category",
          "type": "string"
        },
        {
          "indexed": false,
          "internalType": "uint256",
          "name": "limitPerTx",
          "type": "uint256"
        }
      ],
      "name": "CategoryLimitSet",
      "type": "event"
    },
    {
      "anonymous": false,
      "inputs": [
        {
          "indexed": true,
          "internalType": "address",
          "name": "wallet",
          "type": "address"
        },
        {
          "indexed": true,
          "internalType": "address",
          "name": "target",
          "type": "address"
        }
      ],
      "name": "ContractRemoved",
      "type": "event"
    },
    {
      "anonymous": false,
      "inputs": [
        {
          "indexed": true,
          "internalType": "address",
          "name": "wallet",
          "type": "address"
        },
        {
          "indexed": true,
          "internalType": "address",
          "name": "target",
          "type": "address"
        }
      ],
      "name": "ContractWhitelisted",
      "type": "event"
    },
    {
      "anonymous": false,
      "inputs": [
        {
          "indexed": true,
          "internalType": "address",
          "name": "wallet",
          "type": "address"
        },
        {
          "indexed": false,
          "internalType": "string",
          "name": "category",
          "type": "string"
        },
        {
          "indexed": false,
          "internalType": "uint256",
          "name": "dailyLimit",
          "type": "uint256"
        }
      ],
      "name": "DailyCategoryLimitSet",
      "type": "event"
    },
    {
      "anonymous": false,
      "inputs": [
        {
          "indexed": true,
          "internalType": "address",
          "name": "wallet",
          "type": "address"
        }
      ],
      "name": "DefiAccessDisabled",
      "type": "event"
    },
    {
      "anonymous": false,
      "inputs": [
        {
          "indexed": true,
          "internalType": "address",
          "name": "wallet",
          "type": "address"
        }
      ],
      "name": "DefiAccessEnabled",
      "type": "event"
    },
    {
      "anonymous": false,
      "inputs": [
        {
          "indexed": true,
          "internalType": "address",
          "name": "wallet",
          "type": "address"
        },
        {
          "indexed": false,
          "internalType": "uint256",
          "name": "value",
          "type": "uint256"
        }
      ],
      "name": "MaxContractCallValueSet",
      "type": "event"
    },
    {
      "anonymous": false,
      "inputs": [
        {
          "indexed": true,
          "internalType": "address",
          "name": "wallet",
          "type": "address"
        },
        {
          "indexed": true,
          "internalType": "address",
          "name": "nftContract",
          "type": "address"
        }
      ],
      "name": "NFTContractAllowed",
      "type": "event"
    },
    {
      "anonymous": false,
      "inputs": [
        {
          "indexed": true,
          "internalType": "address",
          "name": "wallet",
          "type": "address"
        },
        {
          "indexed": true,
          "internalType": "address",
          "name": "nftContract",
          "type": "address"
        }
      ],
      "name": "NFTContractDisallowed",
      "type": "event"
    },
    {
      "anonymous": false,
      "inputs": [
        {
          "indexed": true,
          "internalType": "address",
          "name": "wallet",
          "type": "address"
        },
        {
          "indexed": false,
          "internalType": "bytes32",
          "name": "policyHash",
          "type": "bytes32"
        }
      ],
      "name": "PolicySet",
      "type": "event"
    },
    {
      "anonymous": false,
      "inputs": [
        {
          "indexed": true,
          "internalType": "address",
          "name": "wallet",
          "type": "address"
        },
        {
          "indexed": true,
          "internalType": "address",
          "name": "provider",
          "type": "address"
        }
      ],
      "name": "ProviderBlocked",
      "type": "event"
    },
    {
      "anonymous": false,
      "inputs": [
        {
          "indexed": true,
          "internalType": "address",
          "name": "wallet",
          "type": "address"
        },
        {
          "indexed": true,
          "internalType": "address",
          "name": "provider",
          "type": "address"
        },
        {
          "indexed": false,
          "internalType": "string",
          "name": "capability",
          "type": "string"
        }
      ],
      "name": "ProviderPreferred",
      "type": "event"
    },
    {
      "anonymous": false,
      "inputs": [
        {
          "indexed": true,
          "internalType": "address",
          "name": "wallet",
          "type": "address"
        },
        {
          "indexed": true,
          "internalType": "address",
          "name": "provider",
          "type": "address"
        }
      ],
      "name": "ProviderUnblocked",
      "type": "event"
    },
    {
      "anonymous": false,
      "inputs": [
        {
          "indexed": true,
          "internalType": "address",
          "name": "wallet",
          "type": "address"
        },
        {
          "indexed": true,
          "internalType": "address",
          "name": "provider",
          "type": "address"
        },
        {
          "indexed": false,
          "internalType": "string",
          "name": "capability",
          "type": "string"
        }
      ],
      "name": "ProviderUnpreferred",
      "type": "event"
    },
    {
      "anonymous": false,
      "inputs": [
        {
          "indexed": true,
          "internalType": "address",
          "name": "wallet",
          "type": "address"
        },
        {
          "indexed": true,
          "internalType": "address",
          "name": "by",
          "type": "address"
        }
      ],
      "name": "SpendFrozen",
      "type": "event"
    },
    {
      "anonymous": false,
      "inputs": [
        {
          "indexed": true,
          "internalType": "address",
          "name": "wallet",
          "type": "address"
        },
        {
          "indexed": false,
          "internalType": "string",
          "name": "category",
          "type": "string"
        },
        {
          "indexed": false,
          "internalType": "uint256",
          "name": "amount",
          "type": "uint256"
        },
        {
          "indexed": false,
          "internalType": "bytes32",
          "name": "contextId",
          "type": "bytes32"
        }
      ],
      "name": "SpendRecorded",
      "type": "event"
    },
    {
      "anonymous": false,
      "inputs": [
        {
          "indexed": true,
          "internalType": "address",
          "name": "wallet",
          "type": "address"
        },
        {
          "indexed": true,
          "internalType": "address",
          "name": "by",
          "type": "address"
        }
      ],
      "name": "SpendUnfrozen",
      "type": "event"
    },
    {
      "inputs": [
        {
          "internalType": "address",
          "name": "wallet",
          "type": "address"
        },
        {
          "internalType": "string",
          "name": "capability",
          "type": "string"
        },
        {
          "internalType": "address",
          "name": "provider",
          "type": "address"
        }
      ],
      "name": "addPreferred",
      "outputs": [],
      "stateMutability": "nonpayable",
      "type": "function"
    },
    {
      "inputs": [
        {
          "internalType": "address",
          "name": "wallet",
          "type": "address"
        },
        {
          "internalType": "address",
          "name": "provider",
          "type": "address"
        }
      ],
      "name": "addToBlocklist",
      "outputs": [],
      "stateMutability": "nonpayable",
      "type": "function"
    },
    {
      "inputs": [
        {
          "internalType": "address",
          "name": "wallet",
          "type": "address"
        },
        {
          "internalType": "address",
          "name": "nftContract",
          "type": "address"
        }
      ],
      "name": "allowNFTContract",
      "outputs": [],
      "stateMutability": "nonpayable",
      "type": "function"
    },
    {
      "inputs": [
        {
          "internalType": "address",
          "name": "wallet",
          "type": "address"
        },
        {
          "internalType": "string",
          "name": "category",
          "type": "string"
        }
      ],
      "name": "applyCapReduction",
      "outputs": [],
      "stateMutability": "nonpayable",
      "type": "function"
    },
    {
      "inputs": [
        {
          "internalType": "address",
          "name": "agent",
          "type": "address"
        }
      ],
      "name": "authorizeFreezeAgent",
      "outputs": [],
      "stateMutability": "nonpayable",
      "type": "function"
    },
    {
      "inputs": [
        {
          "internalType": "address",
          "name": "",
          "type": "address"
        },
        {
          "internalType": "string",
          "name": "",
          "type": "string"
        }
      ],
      "name": "categoryLimits",
      "outputs": [
        {
          "internalType": "uint256",
          "name": "",
          "type": "uint256"
        }
      ],
      "stateMutability": "view",
      "type": "function"
    },
    {
      "inputs": [
        {
          "internalType": "address",
          "name": "",
          "type": "address"
        },
        {
          "internalType": "string",
          "name": "",
          "type": "string"
        }
      ],
      "name": "dailyCategoryLimit",
      "outputs": [
        {
          "internalType": "uint256",
          "name": "",
          "type": "uint256"
        }
      ],
      "stateMutability": "view",
      "type": "function"
    },
    {
      "inputs": [
        {
          "internalType": "address",
          "name": "",
          "type": "address"
        }
      ],
      "name": "defiAccessEnabled",
      "outputs": [
        {
          "internalType": "bool",
          "name": "",
          "type": "bool"
        }
      ],
      "stateMutability": "view",
      "type": "function"
    },
    {
      "inputs": [
        {
          "internalType": "address",
          "name": "wallet",
          "type": "address"
        }
      ],
      "name": "disableDefiAccess",
      "outputs": [],
      "stateMutability": "nonpayable",
      "type": "function"
    },
    {
      "inputs": [
        {
          "internalType": "address",
          "name": "wallet",
          "type": "address"
        },
        {
          "internalType": "address",
          "name": "nftContract",
          "type": "address"
        }
      ],
      "name": "disallowNFTContract",
      "outputs": [],
      "stateMutability": "nonpayable",
      "type": "function"
    },
    {
      "inputs": [
        {
          "internalType": "address",
          "name": "wallet",
          "type": "address"
        }
      ],
      "name": "enableDefiAccess",
      "outputs": [],
      "stateMutability": "nonpayable",
      "type": "function"
    },
    {
      "inputs": [
        {
          "internalType": "address",
          "name": "wallet",
          "type": "address"
        }
      ],
      "name": "freezeSpend",
      "outputs": [],
      "stateMutability": "nonpayable",
      "type": "function"
    },
    {
      "inputs": [
        {
          "internalType": "address",
          "name": "wallet",
          "type": "address"
        }
      ],
      "name": "getPolicy",
      "outputs": [
        {
          "internalType": "bytes32",
          "name": "",
          "type": "bytes32"
        },
        {
          "internalType": "bytes",
          "name": "",
          "type": "bytes"
        }
      ],
      "stateMutability": "view",
      "type": "function"
    },
    {
      "inputs": [
        {
          "internalType": "address",
          "name": "wallet",
          "type": "address"
        },
        {
          "internalType": "string",
          "name": "capability",
          "type": "string"
        }
      ],
      "name": "getPreferred",
      "outputs": [
        {
          "internalType": "address[]",
          "name": "",
          "type": "address[]"
        }
      ],
      "stateMutability": "view",
      "type": "function"
    },
    {
      "inputs": [
        {
          "internalType": "address",
          "name": "wallet",
          "type": "address"
        },
        {
          "internalType": "address",
          "name": "provider",
          "type": "address"
        }
      ],
      "name": "isBlocked",
      "outputs": [
        {
          "internalType": "bool",
          "name": "",
          "type": "bool"
        }
      ],
      "stateMutability": "view",
      "type": "function"
    },
    {
      "inputs": [
        {
          "internalType": "address",
          "name": "wallet",
          "type": "address"
        },
        {
          "internalType": "address",
          "name": "target",
          "type": "address"
        }
      ],
      "name": "isContractWhitelisted",
      "outputs": [
        {
          "internalType": "bool",
          "name": "",
          "type": "bool"
        }
      ],
      "stateMutability": "view",
      "type": "function"
    },
    {
      "inputs": [
        {
          "internalType": "address",
          "name": "wallet",
          "type": "address"
        },
        {
          "internalType": "address",
          "name": "agent",
          "type": "address"
        }
      ],
      "name": "isFreezeAgent",
      "outputs": [
        {
          "internalType": "bool",
          "name": "",
          "type": "bool"
        }
      ],
      "stateMutability": "view",
      "type": "function"
    },
    {
      "inputs": [
        {
          "internalType": "address",
          "name": "wallet",
          "type": "address"
        },
        {
          "internalType": "address",
          "name": "nftContract",
          "type": "address"
        }
      ],
      "name": "isNFTContractAllowed",
      "outputs": [
        {
          "internalType": "bool",
          "name": "",
          "type": "bool"
        }
      ],
      "stateMutability": "view",
      "type": "function"
    },
    {
      "inputs": [
        {
          "internalType": "address",
          "name": "wallet",
          "type": "address"
        },
        {
          "internalType": "string",
          "name": "capability",
          "type": "string"
        },
        {
          "internalType": "address",
          "name": "provider",
          "type": "address"
        }
      ],
      "name": "isPreferred",
      "outputs": [
        {
          "internalType": "bool",
          "name": "",
          "type": "bool"
        }
      ],
      "stateMutability": "view",
      "type": "function"
    },
    {
      "inputs": [
        {
          "internalType": "address",
          "name": "",
          "type": "address"
        }
      ],
      "name": "maxContractCallValue",
      "outputs": [
        {
          "internalType": "uint256",
          "name": "",
          "type": "uint256"
        }
      ],
      "stateMutability": "view",
      "type": "function"
    },
    {
      "inputs": [
        {
          "internalType": "address",
          "name": "",
          "type": "address"
        }
      ],
      "name": "maxSpendPerHour",
      "outputs": [
        {
          "internalType": "uint256",
          "name": "",
          "type": "uint256"
        }
      ],
      "stateMutability": "view",
      "type": "function"
    },
    {
      "inputs": [
        {
          "internalType": "address",
          "name": "",
          "type": "address"
        }
      ],
      "name": "maxTxPerHour",
      "outputs": [
        {
          "internalType": "uint256",
          "name": "",
          "type": "uint256"
        }
      ],
      "stateMutability": "view",
      "type": "function"
    },
    {
      "inputs": [
        {
          "internalType": "address",
          "name": "",
          "type": "address"
        },
        {
          "internalType": "string",
          "name": "",
          "type": "string"
        }
      ],
      "name": "pendingCapReductions",
      "outputs": [
        {
          "internalType": "uint256",
          "name": "newCap",
          "type": "uint256"
        },
        {
          "internalType": "uint256",
          "name": "effectiveAt",
          "type": "uint256"
        }
      ],
      "stateMutability": "view",
      "type": "function"
    },
    {
      "inputs": [
        {
          "internalType": "address",
          "name": "wallet",
          "type": "address"
        },
        {
          "internalType": "string",
          "name": "category",
          "type": "string"
        },
        {
          "internalType": "uint256",
          "name": "newCap",
          "type": "uint256"
        }
      ],
      "name": "queueCapReduction",
      "outputs": [],
      "stateMutability": "nonpayable",
      "type": "function"
    },
    {
      "inputs": [
        {
          "internalType": "address",
          "name": "wallet",
          "type": "address"
        },
        {
          "internalType": "string",
          "name": "category",
          "type": "string"
        },
        {
          "internalType": "uint256",
          "name": "amount",
          "type": "uint256"
        },
        {
          "internalType": "bytes32",
          "name": "contextId",
          "type": "bytes32"
        }
      ],
      "name": "recordSpend",
      "outputs": [],
      "stateMutability": "nonpayable",
      "type": "function"
    },
    {
      "inputs": [
        {
          "internalType": "address",
          "name": "wallet",
          "type": "address"
        },
        {
          "internalType": "address",
          "name": "owner",
          "type": "address"
        }
      ],
      "name": "registerWallet",
      "outputs": [],
      "stateMutability": "nonpayable",
      "type": "function"
    },
    {
      "inputs": [
        {
          "internalType": "address",
          "name": "wallet",
          "type": "address"
        },
        {
          "internalType": "address",
          "name": "provider",
          "type": "address"
        }
      ],
      "name": "removeFromBlocklist",
      "outputs": [],
      "stateMutability": "nonpayable",
      "type": "function"
    },
    {
      "inputs": [
        {
          "internalType": "address",
          "name": "wallet",
          "type": "address"
        },
        {
          "internalType": "string",
          "name": "capability",
          "type": "string"
        },
        {
          "internalType": "address",
          "name": "provider",
          "type": "address"
        }
      ],
      "name": "removePreferred",
      "outputs": [],
      "stateMutability": "nonpayable",
      "type": "function"
    },
    {
      "inputs": [
        {
          "internalType": "address",
          "name": "wallet",
          "type": "address"
        },
        {
          "internalType": "address",
          "name": "target",
          "type": "address"
        }
      ],
      "name": "removeWhitelistedContract",
      "outputs": [],
      "stateMutability": "nonpayable",
      "type": "function"
    },
    {
      "inputs": [
        {
          "internalType": "address",
          "name": "agent",
          "type": "address"
        }
      ],
      "name": "revokeFreezeAgent",
      "outputs": [],
      "stateMutability": "nonpayable",
      "type": "function"
    },
    {
      "inputs": [
        {
          "internalType": "string",
          "name": "category",
          "type": "string"
        },
        {
          "internalType": "uint256",
          "name": "limitPerTx",
          "type": "uint256"
        }
      ],
      "name": "setCategoryLimit",
      "outputs": [],
      "stateMutability": "nonpayable",
      "type": "function"
    },
    {
      "inputs": [
        {
          "internalType": "address",
          "name": "wallet",
          "type": "address"
        },
        {
          "internalType": "string",
          "name": "category",
          "type": "string"
        },
        {
          "internalType": "uint256",
          "name": "limitPerTx",
          "type": "uint256"
        }
      ],
      "name": "setCategoryLimitFor",
      "outputs": [],
      "stateMutability": "nonpayable",
      "type": "function"
    },
    {
      "inputs": [
        {
          "internalType": "string",
          "name": "category",
          "type": "string"
        },
        {
          "internalType": "uint256",
          "name": "limit",
          "type": "uint256"
        }
      ],
      "name": "setDailyLimit",
      "outputs": [],
      "stateMutability": "nonpayable",
      "type": "function"
    },
    {
      "inputs": [
        {
          "internalType": "address",
          "name": "wallet",
          "type": "address"
        },
        {
          "internalType": "string",
          "name": "category",
          "type": "string"
        },
        {
          "internalType": "uint256",
          "name": "limit",
          "type": "uint256"
        }
      ],
      "name": "setDailyLimitFor",
      "outputs": [],
      "stateMutability": "nonpayable",
      "type": "function"
    },
    {
      "inputs": [
        {
          "internalType": "address",
          "name": "wallet",
          "type": "address"
        },
        {
          "internalType": "uint256",
          "name": "value",
          "type": "uint256"
        }
      ],
      "name": "setMaxContractCallValue",
      "outputs": [],
      "stateMutability": "nonpayable",
      "type": "function"
    },
    {
      "inputs": [
        {
          "internalType": "address",
          "name": "wallet",
          "type": "address"
        },
        {
          "internalType": "uint256",
          "name": "limit",
          "type": "uint256"
        }
      ],
      "name": "setMaxSpendPerHour",
      "outputs": [],
      "stateMutability": "nonpayable",
      "type": "function"
    },
    {
      "inputs": [
        {
          "internalType": "address",
          "name": "wallet",
          "type": "address"
        },
        {
          "internalType": "uint256",
          "name": "limit",
          "type": "uint256"
        }
      ],
      "name": "setMaxTxPerHour",
      "outputs": [],
      "stateMutability": "nonpayable",
      "type": "function"
    },
    {
      "inputs": [
        {
          "internalType": "bytes32",
          "name": "policyHash",
          "type": "bytes32"
        },
        {
          "internalType": "bytes",
          "name": "policyData",
          "type": "bytes"
        }
      ],
      "name": "setPolicy",
      "outputs": [],
      "stateMutability": "nonpayable",
      "type": "function"
    },
    {
      "inputs": [
        {
          "internalType": "address",
          "name": "",
          "type": "address"
        }
      ],
      "name": "spendFrozen",
      "outputs": [
        {
          "internalType": "bool",
          "name": "",
          "type": "bool"
        }
      ],
      "stateMutability": "view",
      "type": "function"
    },
    {
      "inputs": [
        {
          "internalType": "address",
          "name": "wallet",
          "type": "address"
        }
      ],
      "name": "unfreeze",
      "outputs": [],
      "stateMutability": "nonpayable",
      "type": "function"
    },
    {
      "inputs": [
        {
          "internalType": "address",
          "name": "wallet",
          "type": "address"
        },
        {
          "internalType": "address",
          "name": "target",
          "type": "address"
        },
        {
          "internalType": "uint256",
          "name": "value",
          "type": "uint256"
        }
      ],
      "name": "validateContractCall",
      "outputs": [
        {
          "internalType": "bool",
          "name": "valid",
          "type": "bool"
        },
        {
          "internalType": "string",
          "name": "reason",
          "type": "string"
        }
      ],
      "stateMutability": "view",
      "type": "function"
    },
    {
      "inputs": [
        {
          "internalType": "address",
          "name": "wallet",
          "type": "address"
        },
        {
          "internalType": "string",
          "name": "category",
          "type": "string"
        },
        {
          "internalType": "uint256",
          "name": "amount",
          "type": "uint256"
        },
        {
          "internalType": "bytes32",
          "name": "contextId",
          "type": "bytes32"
        }
      ],
      "name": "validateSpend",
      "outputs": [
        {
          "internalType": "bool",
          "name": "valid",
          "type": "bool"
        },
        {
          "internalType": "string",
          "name": "reason",
          "type": "string"
        }
      ],
      "stateMutability": "view",
      "type": "function"
    },
    {
      "inputs": [
        {
          "internalType": "address",
          "name": "",
          "type": "address"
        }
      ],
      "name": "walletOwners",
      "outputs": [
        {
          "internalType": "address",
          "name": "",
          "type": "address"
        }
      ],
      "stateMutability": "view",
      "type": "function"
    },
    {
      "inputs": [
        {
          "internalType": "address",
          "name": "wallet",
          "type": "address"
        },
        {
          "internalType": "address",
          "name": "target",
          "type": "address"
        }
      ],
      "name": "whitelistContract",
      "outputs": [],
      "stateMutability": "nonpayable",
      "type": "function"
    }
  ],
  "bytecode": "0x608060405234801561000f575f80fd5b506133288061001d5f395ff3fe608060405234801561000f575f80fd5b506004361061026b575f3560e01c8063778ef8f61161014b578063c0d94b94116100bf578063d8aebb6b11610084578063d8aebb6b14610711578063dd7f13e214610724578063eb72782014610737578063eccf87111461074a578063f2d6288f1461075d578063fbabc5d214610770575f80fd5b8063c0d94b94146106a6578063c60a7011146106b9578063c814b467146106cc578063c9b3f8ad146106eb578063d15d5e08146106fe575f80fd5b806396c8f55b1161011057806396c8f55b146105b45780639b703903146105c75780639fd7fcd814610602578063a8e9379a14610640578063b15c743a14610680578063b6f8414a14610693575f80fd5b8063778ef8f61461051f57806386c58d3e1461053257806386f6fef71461056d578063923c2f451461058057806396793725146105a1575f80fd5b80634f9975a5116101e25780635a691ed3116101a75780635a691ed31461044e5780635b664fc9146104615780636455b7bc146104745780636639998c146104cb5780636cf792ea146104ed578063764c6cb414610500575f80fd5b80634f9975a5146103e0578063537084c7146103f357806353f86bbf14610406578063553483f614610428578063556134fb1461043b575f80fd5b80632bf6109f116102335780632bf6109f1461032c5780632de18a9e1461033f5780632e71407b1461035e5780633791dc6a1461039957806345c8b1a6146103ba578063490faa1c146103cd575f80fd5b8063038a533b1461026f578063098fbe9b146102985780630d00a094146102e157806317dbacbf146103045780631cc17c5c14610317575b5f80fd5b61028261027d366004612acf565b610783565b60405161028f9190612b1e565b60405180910390f35b6102d36102a6366004612b7e565b600160209081525f9283526040909220815180830184018051928152908401929093019190912091525481565b60405190815260200161028f565b6102f46102ef366004612c3a565b610823565b604051901515815260200161028f565b6102f4610312366004612c6b565b610852565b61032a610325366004612ccc565b6108bf565b005b61032a61033a366004612c6b565b61098d565b6102d361034d366004612ccc565b600e6020525f908152604090205481565b61032a61036c366004612ccc565b335f9081526007602090815260408083206001600160a01b0394909416835292905220805460ff19169055565b6103ac6103a7366004612ccc565b610bfa565b60405161028f929190612d32565b61032a6103c8366004612ccc565b610cb2565b61032a6103db366004612acf565b610d85565b61032a6103ee366004612d4a565b610f37565b61032a610401366004612c3a565b610fac565b6102f4610414366004612ccc565b60066020525f908152604090205460ff1681565b61032a610436366004612c3a565b61110a565b61032a610449366004612d92565b611208565b61032a61045c366004612ccc565b6112fc565b6102f461046f366004612c3a565b611391565b6104b6610482366004612b7e565b600b60209081525f928352604090922081518083018401805192815290840192909301919091209152805460019091015482565b6040805192835260208301919091520161028f565b6102f46104d9366004612ccc565b600c6020525f908152604090205460ff1681565b61032a6104fb366004612df2565b6113b9565b6102d361050e366004612ccc565b600a6020525f908152604090205481565b61032a61052d366004612df2565b61153d565b6102f4610540366004612c3a565b6001600160a01b039182165f90815260106020908152604080832093909416825291909152205460ff1690565b6102f461057b366004612c3a565b611610565b61059361058e366004612e48565b611631565b60405161028f929190612e81565b61032a6105af366004612c3a565b61172a565b61032a6105c2366004612c3a565b611822565b6102d36105d5366004612b7e565b600360209081525f9283526040909220815180830184018051928152908401929093019190912091525481565b61032a610610366004612ccc565b335f9081526007602090815260408083206001600160a01b0394909416835292905220805460ff19166001179055565b61066861064e366004612ccc565b60026020525f90815260409020546001600160a01b031681565b6040516001600160a01b03909116815260200161028f565b61032a61068e366004612e9b565b611989565b61032a6106a1366004612c3a565b611a37565b61032a6106b4366004612c3a565b611b51565b61032a6106c7366004612c6b565b611cc5565b6102d36106da366004612ccc565b60096020525f908152604090205481565b6105936106f9366004612d92565b611ea6565b61032a61070c366004612df2565b6121a9565b61032a61071f366004612d4a565b61226e565b61032a610732366004612ccc565b6122d6565b61032a610745366004612eca565b61236e565b61032a610758366004612eca565b612406565b61032a61076b366004612eca565b61246c565b61032a61077e366004612c3a565b6124d2565b6001600160a01b0383165f908152601160205260408082209051606092906107ae9086908690612ef2565b604051809103902081526020019081526020015f2080548060200260200160405190810160405280929190818152602001828054801561081557602002820191905f5260205f20905b81546001600160a01b031681526001909101906020018083116107f7575b505050505090509392505050565b6001600160a01b038083165f9081526007602090815260408083209385168352929052205460ff165b92915050565b6001600160a01b0384165f908152601260205260408082209051829061087b9087908790612ef2565b604051809103902081526020019081526020015f205f836001600160a01b03166001600160a01b031681526020019081526020015f20545f14159050949350505050565b336001600160a01b03821614806108ee57506001600160a01b038181165f908152600260205260409020541633145b8061091b57506001600160a01b0381165f90815260076020908152604080832033845290915290205460ff165b6109405760405162461bcd60e51b815260040161093790612f01565b60405180910390fd5b6001600160a01b0381165f81815260066020526040808220805460ff19166001179055513392917f08a0b2860b7a9f888b9bbff84c5260baea0c4bfc76e9e4d79711402d754a75f191a350565b83336001600160a01b03821614806109bd57506001600160a01b038181165f908152600260205260409020541633145b6109d95760405162461bcd60e51b815260040161093790612f01565b5f84846040516109ea929190612ef2565b60408051918290039091206001600160a01b038089165f9081526012602090815284822084835281528482209288168252919091529182205490925090819003610a765760405162461bcd60e51b815260206004820152601b60248201527f506f6c696379456e67696e653a206e6f742070726566657272656400000000006044820152606401610937565b6001600160a01b0387165f90815260116020908152604080832085845290915281208054909190610aa990600190612f4c565b905080610ab7600185612f4c565b14610b4f575f828281548110610acf57610acf612f5f565b5f918252602090912001546001600160a01b031690508083610af2600187612f4c565b81548110610b0257610b02612f5f565b5f91825260208083209190910180546001600160a01b0319166001600160a01b039485161790558c8316825260128152604080832089845282528083209490931682529290925290208390555b81805480610b5f57610b5f612f73565b5f828152602080822083015f1990810180546001600160a01b03191690559092019092556001600160a01b038b81168084526012835260408085208986528452808520928b16808652929093528284209390935590519091907ff0835a53254e509919abb4ba9933cca3801a267f37720d0889eb716a662f6f6790610be7908c908c90612faf565b60405180910390a3505050505050505050565b6001600160a01b0381165f90815260208190526040812080546001820180546060939291908190610c2a90612fc2565b80601f0160208091040260200160405190810160405280929190818152602001828054610c5690612fc2565b8015610ca15780601f10610c7857610100808354040283529160200191610ca1565b820191905f5260205f20905b815481529060010190602001808311610c8457829003601f168201915b505050505090509250925050915091565b336001600160a01b0382161480610ce157506001600160a01b038181165f908152600260205260409020541633145b610d3b5760405162461bcd60e51b815260206004820152602560248201527f506f6c696379456e67696e653a206f6e6c79206f776e65722063616e20756e666044820152647265657a6560d81b6064820152608401610937565b6001600160a01b0381165f81815260066020526040808220805460ff19169055513392917fb816e7607241f5183079375d7b9eab9bf9778d1b9cdd2507d7f18931a69fd4cf91a350565b6001600160a01b0383165f908152600b60205260408082209051610dac9085908590612ef2565b908152602001604051809103902090505f816001015411610e1a5760405162461bcd60e51b815260206004820152602260248201527f506f6c696379456e67696e653a206e6f2070656e64696e67207265647563746960448201526137b760f11b6064820152608401610937565b8060010154421015610e6e5760405162461bcd60e51b815260206004820152601d60248201527f506f6c696379456e67696e653a2074696d656c6f636b206163746976650000006044820152606401610937565b80546001600160a01b0385165f90815260036020526040908190209051829190610e9b9087908790612ef2565b9081526040805160209281900383018120939093556001600160a01b0388165f908152600b909252902090610ed39086908690612ef2565b9081526040519081900360200181205f8082556001909101556001600160a01b038616907f10a70888d6088009efd3eb31a8a881b3f01ac8e0b44184c710d87b14f853d8f790610f2890879087908690612ffa565b60405180910390a25050505050565b335f90815260016020526040908190209051829190610f599086908690612ef2565b9081526040519081900360200181209190915533907f844891fdaecb602b3a217b24d12ce10a0b56d973e6c938e4ebd8035757ab141890610f9f90869086908690612ffa565b60405180910390a2505050565b81336001600160a01b0382161480610fdc57506001600160a01b038181165f908152600260205260409020541633145b610ff85760405162461bcd60e51b815260040161093790612f01565b6001600160a01b03821661104e5760405162461bcd60e51b815260206004820152601960248201527f506f6c696379456e67696e653a207a65726f20746172676574000000000000006044820152606401610937565b6001600160a01b0383165f908152600d6020526040902061106f90836125df565b6110c55760405162461bcd60e51b815260206004820152602160248201527f506f6c696379456e67696e653a20616c72656164792077686974656c697374656044820152601960fa1b6064820152608401610937565b816001600160a01b0316836001600160a01b03167fd5885034f191555390b2a9935e59060c37127eef104dfb5ffec0823b6b2f2f4760405160405180910390a3505050565b81336001600160a01b038216148061113a57506001600160a01b038181165f908152600260205260409020541633145b6111565760405162461bcd60e51b815260040161093790612f01565b6001600160a01b0383165f908152600d6020526040902061117790836125f3565b6111c35760405162461bcd60e51b815260206004820152601d60248201527f506f6c696379456e67696e653a206e6f742077686974656c69737465640000006044820152606401610937565b816001600160a01b0316836001600160a01b03167f1de42a421eef953b12e8dffca9f7ba12e7962c982fc649e5e2c32ea0e7e3ca6460405160405180910390a3505050565b336001600160a01b038616148061123757506001600160a01b038581165f908152600260205260409020541633145b6112535760405162461bcd60e51b815260040161093790612f01565b6112948585858080601f0160208091040260200160405190810160405280939291908181526020018383808284375f92019190915250879250612607915050565b61129e85836126c9565b80156112bd575f818152600560205260409020805460ff191660011790555b846001600160a01b03167fbb9c071bdeefd7beafa5a2738503be2342b9fcf580608f906f3980e136dc6d3c85858585604051610f28949392919061301d565b80336001600160a01b038216148061132c57506001600160a01b038181165f908152600260205260409020541633145b6113485760405162461bcd60e51b815260040161093790612f01565b6001600160a01b0382165f818152600c6020526040808220805460ff19169055517f3287f5980a16fb5c93cda0360df8899a4ef9268ced1c8f78a4cd0ab0c7a08cd69190a25050565b6001600160a01b0382165f908152600f602052604081206113b290836127a0565b9392505050565b6001600160a01b038481165f90815260026020526040902054163314806113e857506001600160a01b03841633145b6114045760405162461bcd60e51b815260040161093790612f01565b6001600160a01b0384165f9081526003602052604090819020905161142c9085908590612ef2565b90815260200160405180910390205481106114935760405162461bcd60e51b815260206004820152602160248201527f506f6c696379456e67696e653a2063616e206f6e6c79207265647563652063616044820152600760fc1b6064820152608401610937565b5f6114a14262015180613043565b60408051808201825284815260208082018490526001600160a01b0389165f908152600b9091528290209151929350916114de9087908790612ef2565b9081526040519081900360209081018220835181559201516001909201919091556001600160a01b038616907fb047afb9027757d7e6e287714bfb9e70db86bda2085261120aa9f5611358886e90610f2890879087908790879061301d565b6001600160a01b038481165f908152600260205260409020541633148061156c57506001600160a01b03841633145b6115885760405162461bcd60e51b815260040161093790612f01565b6001600160a01b0384165f908152600360205260409081902090518291906115b39086908690612ef2565b908152602001604051809103902081905550836001600160a01b03167fed9e30fe1d16f5ed33f22de22525d21726656b9af1c4dd18bc3da2f4dbeb8bb084848460405161160293929190612ffa565b60405180910390a250505050565b6001600160a01b0382165f908152600d602052604081206113b290836127a0565b6001600160a01b0383165f908152600c602052604081205460609060ff16611676575f6040518060600160405280602581526020016132a86025913991509150611722565b6001600160a01b0385165f908152600d6020526040902061169790856127a0565b6116be575f6040518060600160405280602681526020016132cd6026913991509150611722565b6001600160a01b0385165f908152600e602052604090205480158015906116e457508084115b1561170d575f60405180606001604052806033815260200161324c603391399250925050611722565b505060408051602081019091525f8152600191505b935093915050565b336001600160a01b0383161461178e5760405162461bcd60e51b815260206004820152602360248201527f506f6c696379456e67696e653a2063616c6c6572206d7573742062652077616c6044820152621b195d60ea1b6064820152608401610937565b6001600160a01b038281165f9081526002602052604090205416156117f55760405162461bcd60e51b815260206004820181905260248201527f506f6c696379456e67696e653a20616c726561647920726567697374657265646044820152606401610937565b6001600160a01b039182165f90815260026020526040902080546001600160a01b03191691909216179055565b81336001600160a01b038216148061185257506001600160a01b038181165f908152600260205260409020541633145b61186e5760405162461bcd60e51b815260040161093790612f01565b6001600160a01b0382166118c45760405162461bcd60e51b815260206004820152601f60248201527f506f6c696379456e67696e653a207a65726f206e667420636f6e7472616374006044820152606401610937565b6001600160a01b0383165f908152600f602052604090206118e590836125df565b6119445760405162461bcd60e51b815260206004820152602a60248201527f506f6c696379456e67696e653a204e465420636f6e747261637420616c726561604482015269191e48185b1b1bddd95960b21b6064820152608401610937565b816001600160a01b0316836001600160a01b03167f135118868deb4d29b4f1412b14e3d8d657b133942e9301acd4cad688e093cd0a60405160405180910390a3505050565b604051806060016040528084815260200183838080601f0160208091040260200160405190810160405280939291908181526020018383808284375f9201829052509385525050426020938401525033815280825260409020825181559082015160018201906119f990826130a1565b50604091820151600291909101555183815233907f053c16c21cccdb49bf267bb56fcf981eee54706d8c3de260e601cc5421efffbb90602001610f9f565b81336001600160a01b0382161480611a6757506001600160a01b038181165f908152600260205260409020541633145b611a835760405162461bcd60e51b815260040161093790612f01565b6001600160a01b038084165f9081526010602090815260408083209386168352929052205460ff16611af75760405162461bcd60e51b815260206004820152601960248201527f506f6c696379456e67696e653a206e6f7420626c6f636b6564000000000000006044820152606401610937565b6001600160a01b038084165f81815260106020908152604080832094871680845294909152808220805460ff19169055517fc43ae84fbcbaa8740ce8a8bba789289723ed0614e471afb399e4c47af213a1689190a3505050565b81336001600160a01b0382161480611b8157506001600160a01b038181165f908152600260205260409020541633145b611b9d5760405162461bcd60e51b815260040161093790612f01565b6001600160a01b038216611bf35760405162461bcd60e51b815260206004820152601b60248201527f506f6c696379456e67696e653a207a65726f2070726f766964657200000000006044820152606401610937565b6001600160a01b038084165f9081526010602090815260408083209386168352929052205460ff1615611c685760405162461bcd60e51b815260206004820152601d60248201527f506f6c696379456e67696e653a20616c726561647920626c6f636b65640000006044820152606401610937565b6001600160a01b038084165f81815260106020908152604080832094871680845294909152808220805460ff19166001179055517f7338f9c47eb0fbc569c50f9944d2b4c12edb62e267df7a223a4dcb13555ed4a79190a3505050565b83336001600160a01b0382161480611cf557506001600160a01b038181165f908152600260205260409020541633145b611d115760405162461bcd60e51b815260040161093790612f01565b6001600160a01b038216611d675760405162461bcd60e51b815260206004820152601b60248201527f506f6c696379456e67696e653a207a65726f2070726f766964657200000000006044820152606401610937565b5f8484604051611d78929190612ef2565b60408051918290039091206001600160a01b038089165f908152601260209081528482208483528152848220928816825291909152919091205490915015611e025760405162461bcd60e51b815260206004820152601f60248201527f506f6c696379456e67696e653a20616c726561647920707265666572726564006044820152606401610937565b6001600160a01b038681165f818152601160209081526040808320868452825280832080546001810182558185528385200180546001600160a01b031916968a169687179055548484526012835281842087855283528184208685529092529182902055517f09ddf6d423f956316dd42b121c70a4d6613e66596499ebf1f61f5608d52ec06c90611e969089908990612faf565b60405180910390a3505050505050565b6001600160a01b0385165f9081526006602052604081205460609060ff1615611f115760405162461bcd60e51b815260206004820152601a60248201527f506f6c696379456e67696e653a207370656e642066726f7a656e0000000000006044820152606401610937565b6001600160a01b0387165f908152600160205260408082209051611f389089908990612ef2565b9081526020016040518091039020549050805f03611f74575f60405180606001604052806025815260200161322760259139925092505061219f565b80851115611fa0575f60405180606001604052806029815260200161319460299139925092505061219f565b8315801590611fbc57505f8481526005602052604090205460ff165b15611fe5575f60405180606001604052806024815260200161320360249139925092505061219f565b6001600160a01b0388165f90815260036020526040808220905161200c908a908a90612ef2565b908152604051908190036020019020549050801561209f575f6120648a8a8a8080601f0160208091040260200160405190810160405280939291908181526020018383808284375f920191909152506127c192505050565b9050816120718883613043565b111561209d575f6040518060600160405280602281526020016131bd602291399450945050505061219f565b505b6001600160a01b0389165f9081526009602052604090205415612113576001600160a01b0389165f908152600960205260409020546120dd8a61285e565b6120e8906001613043565b1115612113575f6040518060600160405280602481526020016131df6024913993509350505061219f565b6001600160a01b0389165f908152600a602052604090205415612187576001600160a01b0389165f908152600a6020526040902054866121528b6128cf565b61215c9190613043565b1115612187575f60405180606001604052806029815260200161327f6029913993509350505061219f565b600160405180602001604052805f8152509350935050505b9550959350505050565b6001600160a01b038481165f90815260026020526040902054163314806121d857506001600160a01b03841633145b6121f45760405162461bcd60e51b815260040161093790612f01565b6001600160a01b0384165f9081526001602052604090819020905182919061221f9086908690612ef2565b908152602001604051809103902081905550836001600160a01b03167f844891fdaecb602b3a217b24d12ce10a0b56d973e6c938e4ebd8035757ab141884848460405161160293929190612ffa565b335f908152600360205260409081902090518291906122909086908690612ef2565b9081526040519081900360200181209190915533907fed9e30fe1d16f5ed33f22de22525d21726656b9af1c4dd18bc3da2f4dbeb8bb090610f9f90869086908690612ffa565b80336001600160a01b038216148061230657506001600160a01b038181165f908152600260205260409020541633145b6123225760405162461bcd60e51b815260040161093790612f01565b6001600160a01b0382165f818152600c6020526040808220805460ff19166001179055517f56320d838e99c18d475af8a5671d30e444ecb5571ac4f0596ed23d81d4e27c909190a25050565b81336001600160a01b038216148061239e57506001600160a01b038181165f908152600260205260409020541633145b6123ba5760405162461bcd60e51b815260040161093790612f01565b6001600160a01b0383165f818152600e602052604090819020849055517fd803c15ec966ee2b7c3e70a832fb9a59ce53f38594cc213233489a295a4b039690610f9f9085815260200190565b6001600160a01b038281165f908152600260205260409020541633148061243557506001600160a01b03821633145b6124515760405162461bcd60e51b815260040161093790612f01565b6001600160a01b039091165f90815260096020526040902055565b6001600160a01b038281165f908152600260205260409020541633148061249b57506001600160a01b03821633145b6124b75760405162461bcd60e51b815260040161093790612f01565b6001600160a01b039091165f908152600a6020526040902055565b81336001600160a01b038216148061250257506001600160a01b038181165f908152600260205260409020541633145b61251e5760405162461bcd60e51b815260040161093790612f01565b6001600160a01b0383165f908152600f6020526040902061253f90836125f3565b61259a5760405162461bcd60e51b815260206004820152602660248201527f506f6c696379456e67696e653a204e465420636f6e7472616374206e6f7420616044820152651b1b1bddd95960d21b6064820152608401610937565b816001600160a01b0316836001600160a01b03167fd3cd40a4f88185087fe5875549812d466d10e9e858a9a54c7d5d785e42a80dfc60405160405180910390a3505050565b5f6113b2836001600160a01b038416612940565b5f6113b2836001600160a01b03841661298c565b6001600160a01b0383165f90815260046020526040808220905161262c908590613161565b908152604051908190036020019020905061264a61a8c0600261317c565b81546126569190613043565b4210612671575f6002820155600181018290554281556126c3565b80546126809061a8c090613043565b42106126aa57600181018054600283015582905580546126a39061a8c090613043565b81556126c3565b81816001015f8282546126bd9190613043565b90915550505b50505050565b6001600160a01b0382165f9081526008602052604090206126ed610708600261317c565b81546126f99190613043565b4210612720575f600282018190556004820155600180820155600381019190915542905550565b805461272f9061070890613043565b421061276757600180820180546002840155600383018054600485015591905582905580546127619061070890613043565b90555050565b6001816001015f82825461277b9190613043565b9250508190555081816003015f8282546127959190613043565b90915550505b505050565b6001600160a01b0381165f90815260018301602052604081205415156113b2565b6001600160a01b0382165f9081526004602052604080822090518291906127e9908590613161565b908152604051908190036020019020905061280761a8c0600261317c565b81546128139190613043565b4210612822575f91505061084c565b80546128319061a8c090613043565b42106128425760010154905061084c565b806002015481600101546128569190613043565b949350505050565b6001600160a01b0381165f908152600860205260408120612882610708600261317c565b815461288e9190613043565b421061289c57505f92915050565b80546128ab9061070890613043565b42106128bb576001015492915050565b806002015481600101546113b29190613043565b6001600160a01b0381165f9081526008602052604081206128f3610708600261317c565b81546128ff9190613043565b421061290d57505f92915050565b805461291c9061070890613043565b421061292c576003015492915050565b806004015481600301546113b29190613043565b5f81815260018301602052604081205461298557508154600181810184555f84815260208082209093018490558454848252828601909352604090209190915561084c565b505f61084c565b5f8181526001830160205260408120548015612a66575f6129ae600183612f4c565b85549091505f906129c190600190612f4c565b9050808214612a20575f865f0182815481106129df576129df612f5f565b905f5260205f200154905080875f0184815481106129ff576129ff612f5f565b5f918252602080832090910192909255918252600188019052604090208390555b8554869080612a3157612a31612f73565b600190038181905f5260205f20015f90559055856001015f8681526020019081526020015f205f90556001935050505061084c565b5f91505061084c565b80356001600160a01b0381168114612a85575f80fd5b919050565b5f8083601f840112612a9a575f80fd5b50813567ffffffffffffffff811115612ab1575f80fd5b602083019150836020828501011115612ac8575f80fd5b9250929050565b5f805f60408486031215612ae1575f80fd5b612aea84612a6f565b9250602084013567ffffffffffffffff811115612b05575f80fd5b612b1186828701612a8a565b9497909650939450505050565b602080825282518282018190525f9190848201906040850190845b81811015612b5e5783516001600160a01b031683529284019291840191600101612b39565b50909695505050505050565b634e487b7160e01b5f52604160045260245ffd5b5f8060408385031215612b8f575f80fd5b612b9883612a6f565b9150602083013567ffffffffffffffff80821115612bb4575f80fd5b818501915085601f830112612bc7575f80fd5b813581811115612bd957612bd9612b6a565b604051601f8201601f19908116603f01168101908382118183101715612c0157612c01612b6a565b81604052828152886020848701011115612c19575f80fd5b826020860160208301375f6020848301015280955050505050509250929050565b5f8060408385031215612c4b575f80fd5b612c5483612a6f565b9150612c6260208401612a6f565b90509250929050565b5f805f8060608587031215612c7e575f80fd5b612c8785612a6f565b9350602085013567ffffffffffffffff811115612ca2575f80fd5b612cae87828801612a8a565b9094509250612cc1905060408601612a6f565b905092959194509250565b5f60208284031215612cdc575f80fd5b6113b282612a6f565b5f5b83811015612cff578181015183820152602001612ce7565b50505f910152565b5f8151808452612d1e816020860160208601612ce5565b601f01601f19169290920160200192915050565b828152604060208201525f6128566040830184612d07565b5f805f60408486031215612d5c575f80fd5b833567ffffffffffffffff811115612d72575f80fd5b612d7e86828701612a8a565b909790965060209590950135949350505050565b5f805f805f60808688031215612da6575f80fd5b612daf86612a6f565b9450602086013567ffffffffffffffff811115612dca575f80fd5b612dd688828901612a8a565b9699909850959660408101359660609091013595509350505050565b5f805f8060608587031215612e05575f80fd5b612e0e85612a6f565b9350602085013567ffffffffffffffff811115612e29575f80fd5b612e3587828801612a8a565b9598909750949560400135949350505050565b5f805f60608486031215612e5a575f80fd5b612e6384612a6f565b9250612e7160208501612a6f565b9150604084013590509250925092565b8215158152604060208201525f6128566040830184612d07565b5f805f60408486031215612ead575f80fd5b83359250602084013567ffffffffffffffff811115612b05575f80fd5b5f8060408385031215612edb575f80fd5b612ee483612a6f565b946020939093013593505050565b818382375f9101908152919050565b6020808252601c908201527f506f6c696379456e67696e653a206e6f7420617574686f72697a656400000000604082015260600190565b634e487b7160e01b5f52601160045260245ffd5b8181038181111561084c5761084c612f38565b634e487b7160e01b5f52603260045260245ffd5b634e487b7160e01b5f52603160045260245ffd5b81835281816020850137505f828201602090810191909152601f909101601f19169091010190565b602081525f612856602083018486612f87565b600181811c90821680612fd657607f821691505b602082108103612ff457634e487b7160e01b5f52602260045260245ffd5b50919050565b604081525f61300d604083018587612f87565b9050826020830152949350505050565b606081525f613030606083018688612f87565b6020830194909452506040015292915050565b8082018082111561084c5761084c612f38565b601f82111561279b57805f5260205f20601f840160051c8101602085101561307b5750805b601f840160051c820191505b8181101561309a575f8155600101613087565b5050505050565b815167ffffffffffffffff8111156130bb576130bb612b6a565b6130cf816130c98454612fc2565b84613056565b602080601f831160018114613102575f84156130eb5750858301515b5f19600386901b1c1916600185901b178555613159565b5f85815260208120601f198616915b8281101561313057888601518255948401946001909101908401613111565b508582101561314d57878501515f19600388901b60f8161c191681555b505060018460011b0185555b505050505050565b5f8251613172818460208701612ce5565b9190910192915050565b808202811582820484141761084c5761084c612f3856fe506f6c696379456e67696e653a20616d6f756e742065786365656473207065722d7478206c696d6974506f6c696379456e67696e653a206461696c79206c696d6974206578636565646564506f6c696379456e67696e653a2074782072617465206c696d6974206578636565646564506f6c696379456e67696e653a20636f6e74657874496420616c72656164792075736564506f6c696379456e67696e653a2063617465676f7279206e6f7420636f6e66696775726564506f6c696379456e67696e653a2076616c75652065786365656473206d617820636f6e74726163742063616c6c206c696d6974506f6c696379456e67696e653a20686f75726c79207370656e64206c696d6974206578636565646564506f6c696379456e67696e653a204465466920616363657373206e6f7420656e61626c6564506f6c696379456e67696e653a20636f6e7472616374206e6f742077686974656c6973746564a2646970667358221220a85fcaed87c67f9c4077e922d21fb143dc4a10034a80db2865d0bdf6e95bd85964736f6c63430008180033",
  "linkReferences": {},
  "deployedLinkReferences": {}
}