{
  "_format": "hh-sol-artifact-1",
  "contractName": "ARC402Wallet",
  "sourceName": "contracts/ARC402Wallet.sol",
  "abi": [
    {
      "inputs": [
        {
          "internalType": "address",
          "name": "_registry",
          "type": "address"
        },
        {
          "internalType": "address",
          "name": "_owner",
          "type": "address"
        }
      ],
      "stateMutability": "nonpayable",
      "type": "constructor"
    },
    {
      "inputs": [],
      "name": "ReentrancyGuardReentrantCall",
      "type": "error"
    },
    {
      "inputs": [
        {
          "internalType": "address",
          "name": "token",
          "type": "address"
        }
      ],
      "name": "SafeERC20FailedOperation",
      "type": "error"
    },
    {
      "anonymous": false,
      "inputs": [
        {
          "indexed": true,
          "internalType": "bytes32",
          "name": "contextId",
          "type": "bytes32"
        },
        {
          "indexed": false,
          "internalType": "uint256",
          "name": "timestamp",
          "type": "uint256"
        }
      ],
      "name": "ContextClosed",
      "type": "event"
    },
    {
      "anonymous": false,
      "inputs": [
        {
          "indexed": true,
          "internalType": "bytes32",
          "name": "contextId",
          "type": "bytes32"
        },
        {
          "indexed": false,
          "internalType": "string",
          "name": "taskType",
          "type": "string"
        },
        {
          "indexed": false,
          "internalType": "uint256",
          "name": "timestamp",
          "type": "uint256"
        }
      ],
      "name": "ContextOpened",
      "type": "event"
    },
    {
      "anonymous": false,
      "inputs": [
        {
          "indexed": true,
          "internalType": "address",
          "name": "target",
          "type": "address"
        },
        {
          "indexed": false,
          "internalType": "uint256",
          "name": "value",
          "type": "uint256"
        },
        {
          "indexed": false,
          "internalType": "bytes",
          "name": "data",
          "type": "bytes"
        },
        {
          "indexed": false,
          "internalType": "uint256",
          "name": "returnValue",
          "type": "uint256"
        }
      ],
      "name": "ContractCallExecuted",
      "type": "event"
    },
    {
      "anonymous": false,
      "inputs": [
        {
          "indexed": true,
          "internalType": "address",
          "name": "interceptor",
          "type": "address"
        }
      ],
      "name": "InterceptorUpdated",
      "type": "event"
    },
    {
      "anonymous": false,
      "inputs": [
        {
          "indexed": false,
          "internalType": "bytes32",
          "name": "newPolicyId",
          "type": "bytes32"
        }
      ],
      "name": "PolicyUpdated",
      "type": "event"
    },
    {
      "anonymous": false,
      "inputs": [
        {
          "indexed": true,
          "internalType": "address",
          "name": "cancelledRegistry",
          "type": "address"
        }
      ],
      "name": "RegistryUpdateCancelled",
      "type": "event"
    },
    {
      "anonymous": false,
      "inputs": [
        {
          "indexed": true,
          "internalType": "address",
          "name": "oldRegistry",
          "type": "address"
        },
        {
          "indexed": true,
          "internalType": "address",
          "name": "newRegistry",
          "type": "address"
        }
      ],
      "name": "RegistryUpdateExecuted",
      "type": "event"
    },
    {
      "anonymous": false,
      "inputs": [
        {
          "indexed": true,
          "internalType": "address",
          "name": "newRegistry",
          "type": "address"
        },
        {
          "indexed": false,
          "internalType": "uint256",
          "name": "unlockAt",
          "type": "uint256"
        }
      ],
      "name": "RegistryUpdateProposed",
      "type": "event"
    },
    {
      "anonymous": false,
      "inputs": [
        {
          "indexed": true,
          "internalType": "address",
          "name": "recipientWallet",
          "type": "address"
        },
        {
          "indexed": false,
          "internalType": "uint256",
          "name": "amount",
          "type": "uint256"
        },
        {
          "indexed": false,
          "internalType": "bytes32",
          "name": "attestationId",
          "type": "bytes32"
        }
      ],
      "name": "SettlementProposed",
      "type": "event"
    },
    {
      "anonymous": false,
      "inputs": [
        {
          "indexed": true,
          "internalType": "address",
          "name": "recipient",
          "type": "address"
        },
        {
          "indexed": false,
          "internalType": "uint256",
          "name": "amount",
          "type": "uint256"
        },
        {
          "indexed": false,
          "internalType": "string",
          "name": "category",
          "type": "string"
        },
        {
          "indexed": false,
          "internalType": "bytes32",
          "name": "attestationId",
          "type": "bytes32"
        }
      ],
      "name": "SpendExecuted",
      "type": "event"
    },
    {
      "anonymous": false,
      "inputs": [
        {
          "indexed": true,
          "internalType": "address",
          "name": "recipient",
          "type": "address"
        },
        {
          "indexed": false,
          "internalType": "uint256",
          "name": "amount",
          "type": "uint256"
        },
        {
          "indexed": false,
          "internalType": "string",
          "name": "reason",
          "type": "string"
        }
      ],
      "name": "SpendRejected",
      "type": "event"
    },
    {
      "anonymous": false,
      "inputs": [
        {
          "indexed": true,
          "internalType": "address",
          "name": "token",
          "type": "address"
        },
        {
          "indexed": true,
          "internalType": "address",
          "name": "recipient",
          "type": "address"
        },
        {
          "indexed": false,
          "internalType": "uint256",
          "name": "amount",
          "type": "uint256"
        },
        {
          "indexed": false,
          "internalType": "string",
          "name": "category",
          "type": "string"
        },
        {
          "indexed": false,
          "internalType": "bytes32",
          "name": "attestationId",
          "type": "bytes32"
        }
      ],
      "name": "TokenSpendExecuted",
      "type": "event"
    },
    {
      "anonymous": false,
      "inputs": [
        {
          "indexed": false,
          "internalType": "uint256",
          "name": "newLimit",
          "type": "uint256"
        }
      ],
      "name": "VelocityLimitUpdated",
      "type": "event"
    },
    {
      "anonymous": false,
      "inputs": [
        {
          "indexed": true,
          "internalType": "address",
          "name": "by",
          "type": "address"
        },
        {
          "indexed": false,
          "internalType": "string",
          "name": "reason",
          "type": "string"
        },
        {
          "indexed": false,
          "internalType": "uint256",
          "name": "timestamp",
          "type": "uint256"
        }
      ],
      "name": "WalletFrozen",
      "type": "event"
    },
    {
      "anonymous": false,
      "inputs": [
        {
          "indexed": true,
          "internalType": "address",
          "name": "by",
          "type": "address"
        },
        {
          "indexed": false,
          "internalType": "uint256",
          "name": "timestamp",
          "type": "uint256"
        }
      ],
      "name": "WalletUnfrozen",
      "type": "event"
    },
    {
      "inputs": [],
      "name": "REGISTRY_TIMELOCK",
      "outputs": [
        {
          "internalType": "uint256",
          "name": "",
          "type": "uint256"
        }
      ],
      "stateMutability": "view",
      "type": "function"
    },
    {
      "inputs": [],
      "name": "SPEND_WINDOW",
      "outputs": [
        {
          "internalType": "uint256",
          "name": "",
          "type": "uint256"
        }
      ],
      "stateMutability": "view",
      "type": "function"
    },
    {
      "inputs": [],
      "name": "activeContextId",
      "outputs": [
        {
          "internalType": "bytes32",
          "name": "",
          "type": "bytes32"
        }
      ],
      "stateMutability": "view",
      "type": "function"
    },
    {
      "inputs": [],
      "name": "activePolicyId",
      "outputs": [
        {
          "internalType": "bytes32",
          "name": "",
          "type": "bytes32"
        }
      ],
      "stateMutability": "view",
      "type": "function"
    },
    {
      "inputs": [],
      "name": "activeTaskType",
      "outputs": [
        {
          "internalType": "string",
          "name": "",
          "type": "string"
        }
      ],
      "stateMutability": "view",
      "type": "function"
    },
    {
      "inputs": [
        {
          "internalType": "bytes32",
          "name": "attestationId",
          "type": "bytes32"
        },
        {
          "internalType": "string",
          "name": "action",
          "type": "string"
        },
        {
          "internalType": "string",
          "name": "reason",
          "type": "string"
        },
        {
          "internalType": "address",
          "name": "recipient",
          "type": "address"
        },
        {
          "internalType": "uint256",
          "name": "amount",
          "type": "uint256"
        },
        {
          "internalType": "address",
          "name": "token",
          "type": "address"
        },
        {
          "internalType": "uint256",
          "name": "expiresAt",
          "type": "uint256"
        }
      ],
      "name": "attest",
      "outputs": [
        {
          "internalType": "bytes32",
          "name": "",
          "type": "bytes32"
        }
      ],
      "stateMutability": "nonpayable",
      "type": "function"
    },
    {
      "inputs": [],
      "name": "authorizedInterceptor",
      "outputs": [
        {
          "internalType": "address",
          "name": "",
          "type": "address"
        }
      ],
      "stateMutability": "view",
      "type": "function"
    },
    {
      "inputs": [],
      "name": "cancelRegistryUpdate",
      "outputs": [],
      "stateMutability": "nonpayable",
      "type": "function"
    },
    {
      "inputs": [],
      "name": "closeContext",
      "outputs": [],
      "stateMutability": "nonpayable",
      "type": "function"
    },
    {
      "inputs": [],
      "name": "contextOpen",
      "outputs": [
        {
          "internalType": "bool",
          "name": "",
          "type": "bool"
        }
      ],
      "stateMutability": "view",
      "type": "function"
    },
    {
      "inputs": [],
      "name": "contextOpenedAt",
      "outputs": [
        {
          "internalType": "uint256",
          "name": "",
          "type": "uint256"
        }
      ],
      "stateMutability": "view",
      "type": "function"
    },
    {
      "inputs": [],
      "name": "ethSpendingInWindow",
      "outputs": [
        {
          "internalType": "uint256",
          "name": "",
          "type": "uint256"
        }
      ],
      "stateMutability": "view",
      "type": "function"
    },
    {
      "inputs": [
        {
          "components": [
            {
              "internalType": "address",
              "name": "target",
              "type": "address"
            },
            {
              "internalType": "bytes",
              "name": "data",
              "type": "bytes"
            },
            {
              "internalType": "uint256",
              "name": "value",
              "type": "uint256"
            },
            {
              "internalType": "uint256",
              "name": "minReturnValue",
              "type": "uint256"
            },
            {
              "internalType": "uint256",
              "name": "maxApprovalAmount",
              "type": "uint256"
            },
            {
              "internalType": "address",
              "name": "approvalToken",
              "type": "address"
            }
          ],
          "internalType": "struct ARC402Wallet.ContractCallParams",
          "name": "params",
          "type": "tuple"
        }
      ],
      "name": "executeContractCall",
      "outputs": [
        {
          "internalType": "bytes",
          "name": "returnData",
          "type": "bytes"
        }
      ],
      "stateMutability": "nonpayable",
      "type": "function"
    },
    {
      "inputs": [],
      "name": "executeRegistryUpdate",
      "outputs": [],
      "stateMutability": "nonpayable",
      "type": "function"
    },
    {
      "inputs": [
        {
          "internalType": "address payable",
          "name": "recipient",
          "type": "address"
        },
        {
          "internalType": "uint256",
          "name": "amount",
          "type": "uint256"
        },
        {
          "internalType": "string",
          "name": "category",
          "type": "string"
        },
        {
          "internalType": "bytes32",
          "name": "attestationId",
          "type": "bytes32"
        }
      ],
      "name": "executeSpend",
      "outputs": [],
      "stateMutability": "nonpayable",
      "type": "function"
    },
    {
      "inputs": [
        {
          "internalType": "address",
          "name": "token",
          "type": "address"
        },
        {
          "internalType": "address",
          "name": "recipient",
          "type": "address"
        },
        {
          "internalType": "uint256",
          "name": "amount",
          "type": "uint256"
        },
        {
          "internalType": "string",
          "name": "category",
          "type": "string"
        },
        {
          "internalType": "bytes32",
          "name": "attestationId",
          "type": "bytes32"
        }
      ],
      "name": "executeTokenSpend",
      "outputs": [],
      "stateMutability": "nonpayable",
      "type": "function"
    },
    {
      "inputs": [
        {
          "internalType": "string",
          "name": "reason",
          "type": "string"
        }
      ],
      "name": "freeze",
      "outputs": [],
      "stateMutability": "nonpayable",
      "type": "function"
    },
    {
      "inputs": [],
      "name": "frozen",
      "outputs": [
        {
          "internalType": "bool",
          "name": "",
          "type": "bool"
        }
      ],
      "stateMutability": "view",
      "type": "function"
    },
    {
      "inputs": [],
      "name": "frozenAt",
      "outputs": [
        {
          "internalType": "uint256",
          "name": "",
          "type": "uint256"
        }
      ],
      "stateMutability": "view",
      "type": "function"
    },
    {
      "inputs": [],
      "name": "frozenBy",
      "outputs": [
        {
          "internalType": "address",
          "name": "",
          "type": "address"
        }
      ],
      "stateMutability": "view",
      "type": "function"
    },
    {
      "inputs": [],
      "name": "getActiveContext",
      "outputs": [
        {
          "internalType": "bytes32",
          "name": "",
          "type": "bytes32"
        },
        {
          "internalType": "string",
          "name": "",
          "type": "string"
        },
        {
          "internalType": "uint256",
          "name": "",
          "type": "uint256"
        },
        {
          "internalType": "bool",
          "name": "",
          "type": "bool"
        }
      ],
      "stateMutability": "view",
      "type": "function"
    },
    {
      "inputs": [],
      "name": "getTrustScore",
      "outputs": [
        {
          "internalType": "uint256",
          "name": "",
          "type": "uint256"
        }
      ],
      "stateMutability": "view",
      "type": "function"
    },
    {
      "inputs": [
        {
          "internalType": "address",
          "name": "",
          "type": "address"
        },
        {
          "internalType": "address",
          "name": "",
          "type": "address"
        },
        {
          "internalType": "uint256[]",
          "name": "",
          "type": "uint256[]"
        },
        {
          "internalType": "uint256[]",
          "name": "",
          "type": "uint256[]"
        },
        {
          "internalType": "bytes",
          "name": "",
          "type": "bytes"
        }
      ],
      "name": "onERC1155BatchReceived",
      "outputs": [
        {
          "internalType": "bytes4",
          "name": "",
          "type": "bytes4"
        }
      ],
      "stateMutability": "pure",
      "type": "function"
    },
    {
      "inputs": [
        {
          "internalType": "address",
          "name": "",
          "type": "address"
        },
        {
          "internalType": "address",
          "name": "",
          "type": "address"
        },
        {
          "internalType": "uint256",
          "name": "",
          "type": "uint256"
        },
        {
          "internalType": "uint256",
          "name": "",
          "type": "uint256"
        },
        {
          "internalType": "bytes",
          "name": "",
          "type": "bytes"
        }
      ],
      "name": "onERC1155Received",
      "outputs": [
        {
          "internalType": "bytes4",
          "name": "",
          "type": "bytes4"
        }
      ],
      "stateMutability": "pure",
      "type": "function"
    },
    {
      "inputs": [
        {
          "internalType": "address",
          "name": "",
          "type": "address"
        },
        {
          "internalType": "address",
          "name": "",
          "type": "address"
        },
        {
          "internalType": "uint256",
          "name": "",
          "type": "uint256"
        },
        {
          "internalType": "bytes",
          "name": "",
          "type": "bytes"
        }
      ],
      "name": "onERC721Received",
      "outputs": [
        {
          "internalType": "bytes4",
          "name": "",
          "type": "bytes4"
        }
      ],
      "stateMutability": "pure",
      "type": "function"
    },
    {
      "inputs": [
        {
          "internalType": "bytes32",
          "name": "contextId",
          "type": "bytes32"
        },
        {
          "internalType": "string",
          "name": "taskType",
          "type": "string"
        }
      ],
      "name": "openContext",
      "outputs": [],
      "stateMutability": "nonpayable",
      "type": "function"
    },
    {
      "inputs": [],
      "name": "owner",
      "outputs": [
        {
          "internalType": "address",
          "name": "",
          "type": "address"
        }
      ],
      "stateMutability": "view",
      "type": "function"
    },
    {
      "inputs": [],
      "name": "pendingRegistry",
      "outputs": [
        {
          "internalType": "address",
          "name": "",
          "type": "address"
        }
      ],
      "stateMutability": "view",
      "type": "function"
    },
    {
      "inputs": [
        {
          "internalType": "address",
          "name": "recipientWallet",
          "type": "address"
        },
        {
          "internalType": "uint256",
          "name": "amount",
          "type": "uint256"
        },
        {
          "internalType": "string",
          "name": "category",
          "type": "string"
        },
        {
          "internalType": "bytes32",
          "name": "attestationId",
          "type": "bytes32"
        }
      ],
      "name": "proposeMASSettlement",
      "outputs": [],
      "stateMutability": "nonpayable",
      "type": "function"
    },
    {
      "inputs": [
        {
          "internalType": "address",
          "name": "newRegistry",
          "type": "address"
        }
      ],
      "name": "proposeRegistryUpdate",
      "outputs": [],
      "stateMutability": "nonpayable",
      "type": "function"
    },
    {
      "inputs": [],
      "name": "registry",
      "outputs": [
        {
          "internalType": "contract ARC402Registry",
          "name": "",
          "type": "address"
        }
      ],
      "stateMutability": "view",
      "type": "function"
    },
    {
      "inputs": [],
      "name": "registryUpdateUnlockAt",
      "outputs": [
        {
          "internalType": "uint256",
          "name": "",
          "type": "uint256"
        }
      ],
      "stateMutability": "view",
      "type": "function"
    },
    {
      "inputs": [
        {
          "internalType": "address",
          "name": "interceptor",
          "type": "address"
        }
      ],
      "name": "setAuthorizedInterceptor",
      "outputs": [],
      "stateMutability": "nonpayable",
      "type": "function"
    },
    {
      "inputs": [
        {
          "internalType": "uint256",
          "name": "limit",
          "type": "uint256"
        }
      ],
      "name": "setVelocityLimit",
      "outputs": [],
      "stateMutability": "nonpayable",
      "type": "function"
    },
    {
      "inputs": [],
      "name": "spendingWindowStart",
      "outputs": [
        {
          "internalType": "uint256",
          "name": "",
          "type": "uint256"
        }
      ],
      "stateMutability": "view",
      "type": "function"
    },
    {
      "inputs": [],
      "name": "tokenSpendingInWindow",
      "outputs": [
        {
          "internalType": "uint256",
          "name": "",
          "type": "uint256"
        }
      ],
      "stateMutability": "view",
      "type": "function"
    },
    {
      "inputs": [],
      "name": "unfreeze",
      "outputs": [],
      "stateMutability": "nonpayable",
      "type": "function"
    },
    {
      "inputs": [
        {
          "internalType": "bytes32",
          "name": "newPolicyId",
          "type": "bytes32"
        }
      ],
      "name": "updatePolicy",
      "outputs": [],
      "stateMutability": "nonpayable",
      "type": "function"
    },
    {
      "inputs": [],
      "name": "velocityLimit",
      "outputs": [
        {
          "internalType": "uint256",
          "name": "",
          "type": "uint256"
        }
      ],
      "stateMutability": "view",
      "type": "function"
    },
    {
      "stateMutability": "payable",
      "type": "receive"
    }
  ],
  "bytecode": "0x60a060405234801562000010575f80fd5b5060405162003611380380620036118339810160408190526200003391620001cd565b60017f9b779b17422d0df92223018b32b4d1fa46e071723d6817e2486d003becc55f00556001600160a01b038116620000a75760405162461bcd60e51b815260206004820152601260248201527120a9219a18191d103d32b9379037bbb732b960711b604482015260640160405180910390fd5b6001600160a01b038181166080525f80546001600160a01b031916918416919091179055620000d562000135565b604051639da8be2160e01b81523060048201526001600160a01b039190911690639da8be21906024015f604051808303815f87803b15801562000116575f80fd5b505af115801562000129573d5f803e3d5ffd5b50505050505062000226565b5f805f9054906101000a90046001600160a01b03166001600160a01b0316639b8354276040518163ffffffff1660e01b8152600401602060405180830381865afa15801562000186573d5f803e3d5ffd5b505050506040513d601f19601f82011682018060405250810190620001ac919062000203565b905090565b80516001600160a01b0381168114620001c8575f80fd5b919050565b5f8060408385031215620001df575f80fd5b620001ea83620001b1565b9150620001fa60208401620001b1565b90509250929050565b5f6020828403121562000214575f80fd5b6200021f82620001b1565b9392505050565b608051613369620002a85f395f81816104a6015281816106ea01528181610c3801528181610cbc0152818161105101528181611124015281816116300152818161171f015281816117f90152818161196c01528181611a6f01528181611af601528181611f80015281816120d10152818161219701526123b901526133695ff3fe60806040526004361061022b575f3560e01c80638da5cb5b11610129578063c2453976116100a8578063e6a86fb01161006d578063e6a86fb014610655578063e7c7d0d414610674578063e9acb15d14610689578063ee2638c41461069f578063f23a6e61146106b3575f80fd5b8063c2453976146105d3578063d046111c146105e8578063e08d125914610607578063e407f8421461061c578063e453a37d14610631575f80fd5b8063b4c19a76116100ee578063b4c19a761461053a578063b5d91bcd1461054e578063b6290d7c1461056d578063b7ea3a1914610586578063bc197c81146105a5575f80fd5b80638da5cb5b146104955780639298bbb3146104c85780639b89fbe3146104dd578063a00e5426146104fc578063b171f3071461051b575f80fd5b8063543d176f116101b557806372aa97f71161017a57806372aa97f71461040d57806374863a7d1461042c57806375c2b9bd14610441578063793a2b02146104625780637b10399914610477575f80fd5b8063543d176f146103925780635be658cb146103a75780635dee1df1146103c657806365df8cf6146103da5780636a28f000146103f9575f80fd5b80632e75686a116101fb5780632e75686a146102ef5780633477e1c51461030e578063364e18bb1461032257806341da29801461034557806344127f731461037c575f80fd5b8063054f7d9c1461023657806314a94e851461026b578063150b7a021461028c578063159d77ac146102d0575f80fd5b3661023257005b5f80fd5b348015610241575f80fd5b5060065461025690600160a01b900460ff1681565b60405190151581526020015b60405180910390f35b348015610276575f80fd5b5061028a610285366004612897565b6106df565b005b348015610297575f80fd5b506102b76102a63660046128f5565b630a85bd0160e11b95945050505050565b6040516001600160e01b03199091168152602001610262565b3480156102db575f80fd5b5061028a6102ea366004612962565b610c2d565b3480156102fa575f80fd5b5061028a610309366004612897565b610cb1565b348015610319575f80fd5b5061028a611046565b34801561032d575f80fd5b5061033760075481565b604051908152602001610262565b348015610350575f80fd5b50600d54610364906001600160a01b031681565b6040516001600160a01b039091168152602001610262565b348015610387575f80fd5b506103376201518081565b34801561039d575f80fd5b5061033760095481565b3480156103b2575f80fd5b5061028a6103c1366004612979565b611119565b3480156103d1575f80fd5b5061028a611625565b3480156103e5575f80fd5b50600854610364906001600160a01b031681565b348015610404575f80fd5b5061028a611714565b348015610418575f80fd5b5061028a6104273660046129ee565b6117ee565b348015610437575f80fd5b50610337600e5481565b34801561044c575f80fd5b506104556118d5565b6040516102629190612a5d565b34801561046d575f80fd5b5061033760025481565b348015610482575f80fd5b505f54610364906001600160a01b031681565b3480156104a0575f80fd5b506103647f000000000000000000000000000000000000000000000000000000000000000081565b3480156104d3575f80fd5b5061033760015481565b3480156104e8575f80fd5b5061028a6104f7366004612a6f565b611961565b348015610507575f80fd5b5061028a610516366004612962565b611a64565b348015610526575f80fd5b50610455610535366004612ab6565b611ae1565b348015610545575f80fd5b5061028a611f75565b348015610559575f80fd5b50610337610568366004612aec565b6120c5565b348015610578575f80fd5b506004546102569060ff1681565b348015610591575f80fd5b5061028a6105a03660046129ee565b61218c565b3480156105b0575f80fd5b506102b76105bf366004612bd5565b63bc197c8160e01b98975050505050505050565b3480156105de575f80fd5b50610337600b5481565b3480156105f3575f80fd5b50600654610364906001600160a01b031681565b348015610612575f80fd5b50610337600c5481565b348015610627575f80fd5b50610337600a5481565b34801561063c575f80fd5b506106456122fa565b6040516102629493929190612c8b565b348015610660575f80fd5b5061028a61066f366004612cbb565b6123ae565b34801561067f575f80fd5b5061033760055481565b348015610694575f80fd5b506103376202a30081565b3480156106aa575f80fd5b506103376124b8565b3480156106be575f80fd5b506102b76106cd366004612cf9565b63f23a6e6160e01b9695505050505050565b336001600160a01b037f000000000000000000000000000000000000000000000000000000000000000016146107305760405162461bcd60e51b815260040161072790612d6f565b60405180910390fd5b60045460ff166107525760405162461bcd60e51b815260040161072790612d9a565b600654600160a01b900460ff161561077c5760405162461bcd60e51b815260040161072790612dd1565b6001600160a01b0385166107d25760405162461bcd60e51b815260206004820152601e60248201527f4152433430323a207a65726f206164647265737320726563697069656e7400006044820152606401610727565b6107da61252e565b6001600160a01b0316630b21df24823088885f6040518663ffffffff1660e01b815260040161080d959493929190612e00565b602060405180830381865afa158015610828573d5f803e3d5ffd5b505050506040513d601f19601f8201168201806040525081019061084c9190612e3b565b6108685760405162461bcd60e51b815260040161072790612e54565b5f806108726125a2565b6001600160a01b031663c9b3f8ad3087878a6002546040518663ffffffff1660e01b81526004016108a7959493929190612ebe565b5f60405180830381865afa1580156108c1573d5f803e3d5ffd5b505050506040513d5f823e601f3d908101601f191682016040526108e89190810190612f0a565b915091508161094e57866001600160a01b03167fd9eaf3c2f71ea752cf13126c74e56ce8bc542abebf264694523495ea7ddac558878360405161092c929190612fc4565b60405180910390a28060405162461bcd60e51b81526004016107279190612a5d565b6201518060095461095f9190612fe4565b42111561097457426009555f600a819055600b555b85600a5f8282546109859190612fe4565b9091555050600c541580159061099e5750600c54600a54115b15610a71576006805460ff60a01b1916600160a01b17905542600781905560405130917fd7c5caef0882fb4bd136c21ce5ff82db03a0eda1409f1db61981b5dc73f98c6d91610a2191906040808252601790820152761d995b1bd8da5d1e481b1a5b5a5d08195e18d959591959604a1b6060820152602081019190915260800190565b60405180910390a260405162461bcd60e51b815260206004820152601f60248201527f4152433430323a2076656c6f63697479206c696d6974206578636565646564006044820152606401610727565b610a7961252e565b6001600160a01b031663af6f8c1b846040518263ffffffff1660e01b8152600401610aa691815260200190565b5f604051808303815f87803b158015610abd575f80fd5b505af1158015610acf573d5f803e3d5ffd5b50505050610adb6125a2565b6001600160a01b031663556134fb3087878a6002546040518663ffffffff1660e01b8152600401610b10959493929190612ebe565b5f604051808303815f87803b158015610b27575f80fd5b505af1158015610b39573d5f803e3d5ffd5b50505050866001600160a01b03167f2b3c6604ff1b7c691d7811592b52251b1e3335a6bcd446f7c845c33c7c83765587878787604051610b7c9493929190613009565b60405180910390a25f876001600160a01b0316876040515f6040518083038185875af1925050503d805f8114610bcd576040519150601f19603f3d011682016040523d82523d5f602084013e610bd2565b606091505b5050905080610c235760405162461bcd60e51b815260206004820152601760248201527f4152433430323a207472616e73666572206661696c65640000000000000000006044820152606401610727565b5050505050505050565b336001600160a01b037f00000000000000000000000000000000000000000000000000000000000000001614610c755760405162461bcd60e51b815260040161072790612d6f565b60018190556040518181527f58722cff4cfeaed2eb7043b72ff6922d9843ac754c33e201627de9bffd23b97a906020015b60405180910390a150565b336001600160a01b037f00000000000000000000000000000000000000000000000000000000000000001614610cf95760405162461bcd60e51b815260040161072790612d6f565b60045460ff16610d1b5760405162461bcd60e51b815260040161072790612d9a565b600654600160a01b900460ff1615610d455760405162461bcd60e51b815260040161072790612dd1565b610d4d61252e565b6001600160a01b0316630b21df24823088885f6040518663ffffffff1660e01b8152600401610d80959493929190612e00565b602060405180830381865afa158015610d9b573d5f803e3d5ffd5b505050506040513d601f19601f82011682018060405250810190610dbf9190612e3b565b610ddb5760405162461bcd60e51b815260040161072790612e54565b5f80610de56125a2565b6001600160a01b031663c9b3f8ad3087878a6002546040518663ffffffff1660e01b8152600401610e1a959493929190612ebe565b5f60405180830381865afa158015610e34573d5f803e3d5ffd5b505050506040513d5f823e601f3d908101601f19168201604052610e5b9190810190612f0a565b91509150818190610e7f5760405162461bcd60e51b81526004016107279190612a5d565b50610e886125a2565b6001600160a01b031663556134fb3087878a6002546040518663ffffffff1660e01b8152600401610ebd959493929190612ebe565b5f604051808303815f87803b158015610ed4575f80fd5b505af1158015610ee6573d5f803e3d5ffd5b50505050610ef261252e565b6001600160a01b031663af6f8c1b846040518263ffffffff1660e01b8152600401610f1f91815260200190565b5f604051808303815f87803b158015610f36575f80fd5b505af1158015610f48573d5f803e3d5ffd5b505060408051898152602081018790526001600160a01b038b1693507f056d47bffa7c2cbd89d97598edfaacedc5a898dcd47487959943f507c38bd4d092500160405180910390a2610f986125f2565b6001600160a01b03166315f93bbb3089895f88610fb84262015180612fe4565b6040516001600160e01b031960e089901b1681526001600160a01b0396871660048201529486166024860152604485019390935293166064830152608482019290925260a481019190915260c4016020604051808303815f875af1158015611022573d5f803e3d5ffd5b505050506040513d601f19601f82011682018060405250810190610c239190613033565b336001600160a01b037f0000000000000000000000000000000000000000000000000000000000000000161461108e5760405162461bcd60e51b815260040161072790612d6f565b60045460ff166110b05760405162461bcd60e51b815260040161072790612d9a565b600280545f918290556040805160208101909152918252906003906110d590826130cd565b506004805460ff1916905560405142815281907fcc6590861f6ca0cdac2283eec9e3d822129a66efb8ddf2bf4b239af6c168295f906020015b60405180910390a250565b336001600160a01b037f000000000000000000000000000000000000000000000000000000000000000016148061115a57506006546001600160a01b031633145b61119f5760405162461bcd60e51b8152602060048201526016602482015275105490cd0c0c8e881b9bdd08185d5d1a1bdc9a5e995960521b6044820152606401610727565b60045460ff166111c15760405162461bcd60e51b815260040161072790612d9a565b600654600160a01b900460ff16156111eb5760405162461bcd60e51b815260040161072790612dd1565b6001600160a01b0385166112415760405162461bcd60e51b815260206004820152601e60248201527f4152433430323a207a65726f206164647265737320726563697069656e7400006044820152606401610727565b6001600160a01b0386166112975760405162461bcd60e51b815260206004820152601a60248201527f4152433430323a207a65726f20746f6b656e20616464726573730000000000006044820152606401610727565b61129f61252e565b6001600160a01b0316630b21df24823088888b6040518663ffffffff1660e01b81526004016112d2959493929190612e00565b602060405180830381865afa1580156112ed573d5f803e3d5ffd5b505050506040513d601f19601f820116820180604052508101906113119190612e3b565b61135d5760405162461bcd60e51b815260206004820152601b60248201527f4152433430323a20696e76616c6964206174746573746174696f6e00000000006044820152606401610727565b5f806113676125a2565b6001600160a01b031663c9b3f8ad3087878a6002546040518663ffffffff1660e01b815260040161139c959493929190612ebe565b5f60405180830381865afa1580156113b6573d5f803e3d5ffd5b505050506040513d5f823e601f3d908101601f191682016040526113dd9190810190612f0a565b915091508161142157866001600160a01b03167fd9eaf3c2f71ea752cf13126c74e56ce8bc542abebf264694523495ea7ddac558878360405161092c929190612fc4565b620151806009546114329190612fe4565b42111561144757426009555f600a819055600b555b85600b5f8282546114589190612fe4565b9091555050600c54158015906114715750600c54600b54115b156114f4576006805460ff60a01b1916600160a01b17905542600781905560405130917fd7c5caef0882fb4bd136c21ce5ff82db03a0eda1409f1db61981b5dc73f98c6d91610a2191906040808252601790820152761d995b1bd8da5d1e481b1a5b5a5d08195e18d959591959604a1b6060820152602081019190915260800190565b6114fc61252e565b6001600160a01b031663af6f8c1b846040518263ffffffff1660e01b815260040161152991815260200190565b5f604051808303815f87803b158015611540575f80fd5b505af1158015611552573d5f803e3d5ffd5b5050505061155e6125a2565b6001600160a01b031663556134fb3087878a6002546040518663ffffffff1660e01b8152600401611593959493929190612ebe565b5f604051808303815f87803b1580156115aa575f80fd5b505af11580156115bc573d5f803e3d5ffd5b50505050866001600160a01b0316886001600160a01b03167fc413a381ad87221fdee626b13a96f80dfc4f65531345244f14facafb73dec02e888888886040516116099493929190613009565b60405180910390a3610c236001600160a01b0389168888612642565b336001600160a01b037f0000000000000000000000000000000000000000000000000000000000000000161461166d5760405162461bcd60e51b815260040161072790612d6f565b600d546001600160a01b03166116c55760405162461bcd60e51b815260206004820152601b60248201527f4152433430323a206e6f2070656e64696e6720726567697374727900000000006044820152606401610727565b600d80546001600160a01b031981169091555f600e8190556040516001600160a01b039092169182917f6537de8b9acab950eea27284433e1e9ef4303422e64fad6660e572299135e6de91a250565b336001600160a01b037f0000000000000000000000000000000000000000000000000000000000000000161461175c5760405162461bcd60e51b815260040161072790612d6f565b600654600160a01b900460ff166117aa5760405162461bcd60e51b815260206004820152601260248201527120a9219a18191d103737ba10333937bd32b760711b6044820152606401610727565b6006805460ff60a01b1916905560405142815233907fe9d414cb75f78aacbb354c06488f105d0c3f5461b45c70b59fc05b44844f264e9060200160405180910390a2565b336001600160a01b037f000000000000000000000000000000000000000000000000000000000000000016146118365760405162461bcd60e51b815260040161072790612d6f565b6001600160a01b03811661188c5760405162461bcd60e51b815260206004820152601860248201527f4152433430323a207a65726f20696e746572636570746f7200000000000000006044820152606401610727565b600680546001600160a01b0319166001600160a01b0383169081179091556040517f771973cb4e5f6765e47643107822ad631da21dd6c48ffa6f886c4ccf5899e63a905f90a250565b600380546118e29061304a565b80601f016020809104026020016040519081016040528092919081815260200182805461190e9061304a565b80156119595780601f1061193057610100808354040283529160200191611959565b820191905f5260205f20905b81548152906001019060200180831161193c57829003601f168201915b505050505081565b336001600160a01b037f000000000000000000000000000000000000000000000000000000000000000016146119a95760405162461bcd60e51b815260040161072790612d6f565b60045460ff16156119fc5760405162461bcd60e51b815260206004820152601c60248201527f4152433430323a20636f6e7465787420616c7265616479206f70656e000000006044820152606401610727565b60028390556003611a0e82848361318c565b506004805460ff1916600117905542600581905560405184917fdde1929d79fef15cb9b8ed0bae129bca92a432de095cce47d10096cdc0fc1ba491611a57918691869190613245565b60405180910390a2505050565b336001600160a01b037f00000000000000000000000000000000000000000000000000000000000000001614611aac5760405162461bcd60e51b815260040161072790612d6f565b600c8190556040518181527fe77eda04259d6693dbc66cf93ed880a87b5d5faf5898681cd565d2383dc3a98e90602001610ca6565b6060611aeb61267c565b336001600160a01b037f00000000000000000000000000000000000000000000000000000000000000001614611b335760405162461bcd60e51b815260040161072790612d6f565b600654600160a01b900460ff1615611b5d5760405162461bcd60e51b815260040161072790612dd1565b5f80546040805163927399a560e01b8152905183926001600160a01b03169163927399a59160048083019260209291908290030181865afa158015611ba4573d5f803e3d5ffd5b505050506040513d601f19601f82011682018060405250810190611bc89190613268565b6001600160a01b031663923c2f4530611be460208801886129ee565b604080516001600160e01b031960e086901b1681526001600160a01b03938416600482015292909116602483015287013560448201526064015f60405180830381865afa158015611c37573d5f803e3d5ffd5b505050506040513d5f823e601f3d908101601f19168201604052611c5e9190810190612f0a565b91509150818190611c825760405162461bcd60e51b81526004016107279190612a5d565b505f611c9460c0860160a087016129ee565b6001600160a01b031614158015611cae57505f8460800135115b15611ce857611ce8611cc360208601866129ee565b6080860135611cd860c0880160a089016129ee565b6001600160a01b031691906126aa565b5f611cf660208601866129ee565b6001600160a01b03166040860135611d116020880188613283565b604051611d1f9291906132c5565b5f6040518083038185875af1925050503d805f8114611d59576040519150601f19603f3d011682016040523d82523d5f602084013e611d5e565b606091505b509450905080611db05760405162461bcd60e51b815260206004820152601c60248201527f4152433430323a20636f6e74726163742063616c6c206661696c6564000000006044820152606401610727565b5f611dc160c0870160a088016129ee565b6001600160a01b031614158015611ddb57505f8560800135115b15611e0157611e01611df060208701876129ee565b5f611cd860c0890160a08a016129ee565b5f606086013515611ee157602085511015611e775760405162461bcd60e51b815260206004820152603060248201527f4152433430323a2072657475726e206461746120746f6f2073686f727420666f60448201526f7220736c69707061676520636865636b60801b6064820152608401610727565b84806020019051810190611e8b9190613033565b90508560600135811015611ee15760405162461bcd60e51b815260206004820152601960248201527f4152433430323a20736c697070616765206578636565646564000000000000006044820152606401610727565b611eee60208701876129ee565b6001600160a01b03167fd984c1c8ef5a8366fad7c70b5582ff657aa8d5460018354022062adcb3a6e0b46040880135611f2a60208a018a613283565b85604051611f3b9493929190613009565b60405180910390a250505050611f7060017f9b779b17422d0df92223018b32b4d1fa46e071723d6817e2486d003becc55f0055565b919050565b336001600160a01b037f00000000000000000000000000000000000000000000000000000000000000001614611fbd5760405162461bcd60e51b815260040161072790612d6f565b600d546001600160a01b03166120155760405162461bcd60e51b815260206004820152601b60248201527f4152433430323a206e6f2070656e64696e6720726567697374727900000000006044820152606401610727565b600e544210156120675760405162461bcd60e51b815260206004820152601c60248201527f4152433430323a2074696d656c6f636b206e6f7420656c6170736564000000006044820152606401610727565b5f8054600d80546001600160a01b038082166001600160a01b031980861682178755909216909255600e849055604051919092169283917fd4e660faac6647a70055bb17f921f6a392a3282f79fe79dc20454c91d02152959190a350565b5f336001600160a01b037f0000000000000000000000000000000000000000000000000000000000000000161461210e5760405162461bcd60e51b815260040161072790612d6f565b61211661252e565b6001600160a01b031663b5d91bcd8b8b8b8b8b8b8b8b8b6040518a63ffffffff1660e01b8152600401612151999897969594939291906132d4565b5f604051808303815f87803b158015612168575f80fd5b505af115801561217a573d5f803e3d5ffd5b509b9c9b505050505050505050505050565b336001600160a01b037f000000000000000000000000000000000000000000000000000000000000000016146121d45760405162461bcd60e51b815260040161072790612d6f565b6001600160a01b0381166122225760405162461bcd60e51b81526020600482015260156024820152744152433430323a207a65726f20726567697374727960581b6044820152606401610727565b600d546001600160a01b0316156122925760405162461bcd60e51b815260206004820152602e60248201527f4152433430323a207570677261646520616c72656164792070656e64696e672060448201526d0b4818d85b98d95b08199a5c9cdd60921b6064820152608401610727565b600d80546001600160a01b0319166001600160a01b0383161790556122ba6202a30042612fe4565b600e8190556040519081526001600160a01b038216907f7e23dea4a8bb09d5bafbf974ecb91c3a7c03e396b7ddc4a433446cd06f6c440d9060200161110e565b5f60605f80600254600360055460045f9054906101000a900460ff168280546123229061304a565b80601f016020809104026020016040519081016040528092919081815260200182805461234e9061304a565b80156123995780601f1061237057610100808354040283529160200191612399565b820191905f5260205f20905b81548152906001019060200180831161237c57829003601f168201915b50505050509250935093509350935090919293565b336001600160a01b037f000000000000000000000000000000000000000000000000000000000000000016146123f65760405162461bcd60e51b815260040161072790612d6f565b600654600160a01b900460ff16156124495760405162461bcd60e51b815260206004820152601660248201527520a9219a18191d1030b63932b0b23c90333937bd32b760511b6044820152606401610727565b6006805460ff60a01b1916600160a01b179055426007819055600880546001600160a01b0319163390811790915560405190917fd7c5caef0882fb4bd136c21ce5ff82db03a0eda1409f1db61981b5dc73f98c6d916124ac918691869190613245565b60405180910390a25050565b5f6124c16126fc565b604051630d47875d60e41b81523060048201526001600160a01b03919091169063d47875d090602401602060405180830381865afa158015612505573d5f803e3d5ffd5b505050506040513d601f19601f820116820180604052508101906125299190613033565b905090565b5f805f9054906101000a90046001600160a01b03166001600160a01b03166381f252ab6040518163ffffffff1660e01b8152600401602060405180830381865afa15801561257e573d5f803e3d5ffd5b505050506040513d601f19601f820116820180604052508101906125299190613268565b5f805f9054906101000a90046001600160a01b03166001600160a01b031663927399a56040518163ffffffff1660e01b8152600401602060405180830381865afa15801561257e573d5f803e3d5ffd5b5f805f9054906101000a90046001600160a01b03166001600160a01b0316634e2f2c996040518163ffffffff1660e01b8152600401602060405180830381865afa15801561257e573d5f803e3d5ffd5b61264f838383600161274c565b61267757604051635274afe760e01b81526001600160a01b0384166004820152602401610727565b505050565b6126846127ae565b60027f9b779b17422d0df92223018b32b4d1fa46e071723d6817e2486d003becc55f0055565b6126b68383835f6127f2565b612677576126c783835f60016127f2565b6126ef57604051635274afe760e01b81526001600160a01b0384166004820152602401610727565b61264f83838360016127f2565b5f805f9054906101000a90046001600160a01b03166001600160a01b0316639b8354276040518163ffffffff1660e01b8152600401602060405180830381865afa15801561257e573d5f803e3d5ffd5b60405163a9059cbb60e01b5f8181526001600160a01b038616600452602485905291602083604481808b5af1925060015f511483166127a2578383151615612796573d5f823e3d81fd5b5f873b113d1516831692505b60405250949350505050565b7f9b779b17422d0df92223018b32b4d1fa46e071723d6817e2486d003becc55f00546002036127f057604051633ee5aeb560e01b815260040160405180910390fd5b565b60405163095ea7b360e01b5f8181526001600160a01b038616600452602485905291602083604481808b5af1925060015f511483166127a2578383151615612796573d5f823e3d81fd5b6001600160a01b0381168114612850575f80fd5b50565b5f8083601f840112612863575f80fd5b5081356001600160401b03811115612879575f80fd5b602083019150836020828501011115612890575f80fd5b9250929050565b5f805f805f608086880312156128ab575f80fd5b85356128b68161283c565b94506020860135935060408601356001600160401b038111156128d7575f80fd5b6128e388828901612853565b96999598509660600135949350505050565b5f805f805f60808688031215612909575f80fd5b85356129148161283c565b945060208601356129248161283c565b93506040860135925060608601356001600160401b03811115612945575f80fd5b61295188828901612853565b969995985093965092949392505050565b5f60208284031215612972575f80fd5b5035919050565b5f805f805f8060a0878903121561298e575f80fd5b86356129998161283c565b955060208701356129a98161283c565b94506040870135935060608701356001600160401b038111156129ca575f80fd5b6129d689828a01612853565b979a9699509497949695608090950135949350505050565b5f602082840312156129fe575f80fd5b8135612a098161283c565b9392505050565b5f5b83811015612a2a578181015183820152602001612a12565b50505f910152565b5f8151808452612a49816020860160208601612a10565b601f01601f19169290920160200192915050565b602081525f612a096020830184612a32565b5f805f60408486031215612a81575f80fd5b8335925060208401356001600160401b03811115612a9d575f80fd5b612aa986828701612853565b9497909650939450505050565b5f60208284031215612ac6575f80fd5b81356001600160401b03811115612adb575f80fd5b820160c08185031215612a09575f80fd5b5f805f805f805f805f60e08a8c031215612b04575f80fd5b8935985060208a01356001600160401b0380821115612b21575f80fd5b612b2d8d838e01612853565b909a50985060408c0135915080821115612b45575f80fd5b50612b528c828d01612853565b90975095505060608a0135612b668161283c565b935060808a0135925060a08a0135612b7d8161283c565b8092505060c08a013590509295985092959850929598565b5f8083601f840112612ba5575f80fd5b5081356001600160401b03811115612bbb575f80fd5b6020830191508360208260051b8501011115612890575f80fd5b5f805f805f805f8060a0898b031215612bec575f80fd5b8835612bf78161283c565b97506020890135612c078161283c565b965060408901356001600160401b0380821115612c22575f80fd5b612c2e8c838d01612b95565b909850965060608b0135915080821115612c46575f80fd5b612c528c838d01612b95565b909650945060808b0135915080821115612c6a575f80fd5b50612c778b828c01612853565b999c989b5096995094979396929594505050565b848152608060208201525f612ca36080830186612a32565b60408301949094525090151560609091015292915050565b5f8060208385031215612ccc575f80fd5b82356001600160401b03811115612ce1575f80fd5b612ced85828601612853565b90969095509350505050565b5f805f805f8060a08789031215612d0e575f80fd5b8635612d198161283c565b95506020870135612d298161283c565b9450604087013593506060870135925060808701356001600160401b03811115612d51575f80fd5b612d5d89828a01612853565b979a9699509497509295939492505050565b60208082526011908201527020a9219a18191d103737ba1037bbb732b960791b604082015260600190565b60208082526019908201527f4152433430323a206e6f2061637469766520636f6e7465787400000000000000604082015260600190565b60208082526015908201527420a9219a18191d103bb0b63632ba10333937bd32b760591b604082015260600190565b9485526001600160a01b0393841660208601529183166040850152606084015216608082015260a00190565b80518015158114611f70575f80fd5b5f60208284031215612e4b575f80fd5b612a0982612e2c565b60208082526022908201527f4152433430323a20696e76616c696420696e74656e742061747465737461746960408201526137b760f11b606082015260800190565b81835281816020850137505f828201602090810191909152601f909101601f19169091010190565b6001600160a01b03861681526080602082018190525f90612ee29083018688612e96565b604083019490945250606001529392505050565b634e487b7160e01b5f52604160045260245ffd5b5f8060408385031215612f1b575f80fd5b612f2483612e2c565b915060208301516001600160401b0380821115612f3f575f80fd5b818501915085601f830112612f52575f80fd5b815181811115612f6457612f64612ef6565b604051601f8201601f19908116603f01168101908382118183101715612f8c57612f8c612ef6565b81604052828152886020848701011115612fa4575f80fd5b612fb5836020830160208801612a10565b80955050505050509250929050565b828152604060208201525f612fdc6040830184612a32565b949350505050565b8082018082111561300357634e487b7160e01b5f52601160045260245ffd5b92915050565b848152606060208201525f613022606083018587612e96565b905082604083015295945050505050565b5f60208284031215613043575f80fd5b5051919050565b600181811c9082168061305e57607f821691505b60208210810361307c57634e487b7160e01b5f52602260045260245ffd5b50919050565b601f82111561267757805f5260205f20601f840160051c810160208510156130a75750805b601f840160051c820191505b818110156130c6575f81556001016130b3565b5050505050565b81516001600160401b038111156130e6576130e6612ef6565b6130fa816130f4845461304a565b84613082565b602080601f83116001811461312d575f84156131165750858301515b5f19600386901b1c1916600185901b178555613184565b5f85815260208120601f198616915b8281101561315b5788860151825594840194600190910190840161313c565b508582101561317857878501515f19600388901b60f8161c191681555b505060018460011b0185555b505050505050565b6001600160401b038311156131a3576131a3612ef6565b6131b7836131b1835461304a565b83613082565b5f601f8411600181146131e8575f85156131d15750838201355b5f19600387901b1c1916600186901b1783556130c6565b5f83815260208120601f198716915b8281101561321757868501358255602094850194600190920191016131f7565b5086821015613233575f1960f88860031b161c19848701351681555b505060018560011b0183555050505050565b604081525f613258604083018587612e96565b9050826020830152949350505050565b5f60208284031215613278575f80fd5b8151612a098161283c565b5f808335601e19843603018112613298575f80fd5b8301803591506001600160401b038211156132b1575f80fd5b602001915036819003821315612890575f80fd5b818382375f9101908152919050565b89815260e060208201525f6132ed60e083018a8c612e96565b828103604084015261330081898b612e96565b6001600160a01b039788166060850152608084019690965250509190931660a082015260c001919091529594505050505056fea26469706673582212200ff55be7677b53736fe6e798d17ae2a13fe784f489ed053dcce86669fdf5d1ab64736f6c63430008180033",
  "linkReferences": {},
  "deployedLinkReferences": {}
}