{
  "_format": "hh-sol-artifact-1",
  "contractName": "ARC402WalletTest",
  "sourceName": "contracts/ARC402WalletTest.sol",
  "abi": [
    {
      "inputs": [
        {
          "internalType": "address",
          "name": "_policyEngine",
          "type": "address"
        },
        {
          "internalType": "address",
          "name": "_trustRegistry",
          "type": "address"
        },
        {
          "internalType": "address",
          "name": "_intentAttestation",
          "type": "address"
        }
      ],
      "stateMutability": "nonpayable",
      "type": "constructor"
    },
    {
      "anonymous": false,
      "inputs": [
        {
          "indexed": true,
          "internalType": "bytes32",
          "name": "contextId",
          "type": "bytes32"
        },
        {
          "indexed": false,
          "internalType": "uint256",
          "name": "timestamp",
          "type": "uint256"
        }
      ],
      "name": "ContextClosed",
      "type": "event"
    },
    {
      "anonymous": false,
      "inputs": [
        {
          "indexed": true,
          "internalType": "bytes32",
          "name": "contextId",
          "type": "bytes32"
        },
        {
          "indexed": false,
          "internalType": "string",
          "name": "taskType",
          "type": "string"
        },
        {
          "indexed": false,
          "internalType": "uint256",
          "name": "timestamp",
          "type": "uint256"
        }
      ],
      "name": "ContextOpened",
      "type": "event"
    },
    {
      "anonymous": false,
      "inputs": [
        {
          "indexed": true,
          "internalType": "address",
          "name": "recipientWallet",
          "type": "address"
        },
        {
          "indexed": false,
          "internalType": "uint256",
          "name": "amount",
          "type": "uint256"
        },
        {
          "indexed": false,
          "internalType": "bytes32",
          "name": "attestationId",
          "type": "bytes32"
        }
      ],
      "name": "SettlementProposed",
      "type": "event"
    },
    {
      "anonymous": false,
      "inputs": [
        {
          "indexed": true,
          "internalType": "address",
          "name": "recipient",
          "type": "address"
        },
        {
          "indexed": false,
          "internalType": "uint256",
          "name": "amount",
          "type": "uint256"
        },
        {
          "indexed": false,
          "internalType": "string",
          "name": "category",
          "type": "string"
        },
        {
          "indexed": false,
          "internalType": "bytes32",
          "name": "attestationId",
          "type": "bytes32"
        }
      ],
      "name": "SpendExecuted",
      "type": "event"
    },
    {
      "inputs": [],
      "name": "activeContextId",
      "outputs": [
        {
          "internalType": "bytes32",
          "name": "",
          "type": "bytes32"
        }
      ],
      "stateMutability": "view",
      "type": "function"
    },
    {
      "inputs": [],
      "name": "activeTaskType",
      "outputs": [
        {
          "internalType": "string",
          "name": "",
          "type": "string"
        }
      ],
      "stateMutability": "view",
      "type": "function"
    },
    {
      "inputs": [],
      "name": "closeContext",
      "outputs": [],
      "stateMutability": "nonpayable",
      "type": "function"
    },
    {
      "inputs": [],
      "name": "contextOpen",
      "outputs": [
        {
          "internalType": "bool",
          "name": "",
          "type": "bool"
        }
      ],
      "stateMutability": "view",
      "type": "function"
    },
    {
      "inputs": [],
      "name": "contextOpenedAt",
      "outputs": [
        {
          "internalType": "uint256",
          "name": "",
          "type": "uint256"
        }
      ],
      "stateMutability": "view",
      "type": "function"
    },
    {
      "inputs": [
        {
          "internalType": "address payable",
          "name": "recipient",
          "type": "address"
        },
        {
          "internalType": "uint256",
          "name": "amount",
          "type": "uint256"
        },
        {
          "internalType": "string",
          "name": "category",
          "type": "string"
        },
        {
          "internalType": "bytes32",
          "name": "attestationId",
          "type": "bytes32"
        }
      ],
      "name": "executeSpend",
      "outputs": [],
      "stateMutability": "nonpayable",
      "type": "function"
    },
    {
      "inputs": [],
      "name": "getTrustScore",
      "outputs": [
        {
          "internalType": "uint256",
          "name": "",
          "type": "uint256"
        }
      ],
      "stateMutability": "view",
      "type": "function"
    },
    {
      "inputs": [],
      "name": "intentAttestation",
      "outputs": [
        {
          "internalType": "contract IIntentAttestation",
          "name": "",
          "type": "address"
        }
      ],
      "stateMutability": "view",
      "type": "function"
    },
    {
      "inputs": [
        {
          "internalType": "bytes32",
          "name": "contextId",
          "type": "bytes32"
        },
        {
          "internalType": "string",
          "name": "taskType",
          "type": "string"
        }
      ],
      "name": "openContext",
      "outputs": [],
      "stateMutability": "nonpayable",
      "type": "function"
    },
    {
      "inputs": [],
      "name": "owner",
      "outputs": [
        {
          "internalType": "address",
          "name": "",
          "type": "address"
        }
      ],
      "stateMutability": "view",
      "type": "function"
    },
    {
      "inputs": [],
      "name": "policyEngine",
      "outputs": [
        {
          "internalType": "contract IPolicyEngine",
          "name": "",
          "type": "address"
        }
      ],
      "stateMutability": "view",
      "type": "function"
    },
    {
      "inputs": [
        {
          "internalType": "address",
          "name": "recipientWallet",
          "type": "address"
        },
        {
          "internalType": "uint256",
          "name": "amount",
          "type": "uint256"
        },
        {
          "internalType": "string",
          "name": "category",
          "type": "string"
        },
        {
          "internalType": "bytes32",
          "name": "attestationId",
          "type": "bytes32"
        }
      ],
      "name": "proposeMASSettlement",
      "outputs": [],
      "stateMutability": "nonpayable",
      "type": "function"
    },
    {
      "inputs": [
        {
          "internalType": "bytes32",
          "name": "id",
          "type": "bytes32"
        },
        {
          "internalType": "string",
          "name": "action",
          "type": "string"
        },
        {
          "internalType": "string",
          "name": "reason",
          "type": "string"
        },
        {
          "internalType": "address",
          "name": "recipient",
          "type": "address"
        },
        {
          "internalType": "uint256",
          "name": "amount",
          "type": "uint256"
        },
        {
          "internalType": "address",
          "name": "token",
          "type": "address"
        }
      ],
      "name": "relayAttest",
      "outputs": [],
      "stateMutability": "nonpayable",
      "type": "function"
    },
    {
      "inputs": [
        {
          "internalType": "string",
          "name": "category",
          "type": "string"
        },
        {
          "internalType": "uint256",
          "name": "limitPerTx",
          "type": "uint256"
        }
      ],
      "name": "relayCategoryLimit",
      "outputs": [],
      "stateMutability": "nonpayable",
      "type": "function"
    },
    {
      "inputs": [],
      "name": "trustRegistry",
      "outputs": [
        {
          "internalType": "contract ITrustRegistry",
          "name": "",
          "type": "address"
        }
      ],
      "stateMutability": "view",
      "type": "function"
    },
    {
      "stateMutability": "payable",
      "type": "receive"
    }
  ],
  "bytecode": "0x61010060405234801562000011575f80fd5b50604051620018e6380380620018e68339810160408190526200003491620000c4565b336080526001600160a01b0383811660a05282811660c081905290821660e052604051639da8be2160e01b8152306004820152639da8be21906024015f604051808303815f87803b15801562000088575f80fd5b505af11580156200009b573d5f803e3d5ffd5b505050505050506200010b565b80516001600160a01b0381168114620000bf575f80fd5b919050565b5f805f60608486031215620000d7575f80fd5b620000e284620000a8565b9250620000f260208501620000a8565b91506200010260408501620000a8565b90509250925092565b60805160a05160c05160e051611737620001af5f395f81816101a30152818161041e015281816105b1015281816107a30152818161092b0152610d1301525f818161025401528181610aba0152610f0001525f8181610221015281816104fa015281816108740152610dd801525f81816101ee015281816103300152818161070b015281816109e201528181610bbd01528181610cbf0152610d9801526117375ff3fe6080604052600436106100e7575f3560e01c8063927399a511610087578063bc5ce9b011610057578063bc5ce9b0146102be578063d97e6024146102dd578063e7c7d0d4146102fc578063ee2638c414610311575f80fd5b8063927399a5146102105780639b835427146102435780639b89fbe314610276578063b6290d7c14610295575f80fd5b806375c2b9bd116100c257806375c2b9bd14610146578063793a2b021461017057806381f252ab146101925780638da5cb5b146101dd575f80fd5b806314a94e85146100f25780632e75686a146101135780633477e1c514610132575f80fd5b366100ee57005b5f80fd5b3480156100fd575f80fd5b5061011161010c366004610fd2565b610325565b005b34801561011e575f80fd5b5061011161012d366004610fd2565b610700565b34801561013d575f80fd5b506101116109d7565b348015610151575f80fd5b5061015a610b26565b6040516101679190611053565b60405180910390f35b34801561017b575f80fd5b506101845f5481565b604051908152602001610167565b34801561019d575f80fd5b506101c57f000000000000000000000000000000000000000000000000000000000000000081565b6040516001600160a01b039091168152602001610167565b3480156101e8575f80fd5b506101c57f000000000000000000000000000000000000000000000000000000000000000081565b34801561021b575f80fd5b506101c57f000000000000000000000000000000000000000000000000000000000000000081565b34801561024e575f80fd5b506101c57f000000000000000000000000000000000000000000000000000000000000000081565b348015610281575f80fd5b50610111610290366004611085565b610bb2565b3480156102a0575f80fd5b506002546102ae9060ff1681565b6040519015158152602001610167565b3480156102c9575f80fd5b506101116102d83660046110cd565b610cb4565b3480156102e8575f80fd5b506101116102f736600461116f565b610d8d565b348015610307575f80fd5b5061018460035481565b34801561031c575f80fd5b50610184610ee9565b336001600160a01b037f000000000000000000000000000000000000000000000000000000000000000016146103765760405162461bcd60e51b815260040161036d906111b7565b60405180910390fd5b60025460ff166103985760405162461bcd60e51b815260040161036d906111e2565b6001600160a01b0385166103e55760405162461bcd60e51b81526020600482015260146024820152734152433430323a207a65726f206164647265737360601b604482015260640161036d565b6040516302c877c960e21b8152600481018290523060248201526001600160a01b038681166044830152606482018690525f60848301527f00000000000000000000000000000000000000000000000000000000000000001690630b21df249060a401602060405180830381865afa158015610463573d5f803e3d5ffd5b505050506040513d601f19601f82011682018060405250810190610487919061122d565b6104de5760405162461bcd60e51b815260206004820152602260248201527f4152433430323a20696e76616c696420696e74656e742061747465737461746960448201526137b760f11b606482015260840161036d565b5f805460405163c9b3f8ad60e01b815282916001600160a01b037f0000000000000000000000000000000000000000000000000000000000000000169163c9b3f8ad916105359130918a918a918d91600401611275565b5f60405180830381865afa15801561054f573d5f803e3d5ffd5b505050506040513d5f823e601f3d908101601f1916820160405261057691908101906112c1565b9150915081819061059a5760405162461bcd60e51b815260040161036d9190611053565b5060405163af6f8c1b60e01b8152600481018490527f00000000000000000000000000000000000000000000000000000000000000006001600160a01b03169063af6f8c1b906024015f604051808303815f87803b1580156105fa575f80fd5b505af115801561060c573d5f803e3d5ffd5b50505050866001600160a01b03167f2b3c6604ff1b7c691d7811592b52251b1e3335a6bcd446f7c845c33c7c8376558787878760405161064f949392919061137c565b60405180910390a25f876001600160a01b0316876040515f6040518083038185875af1925050503d805f81146106a0576040519150601f19603f3d011682016040523d82523d5f602084013e6106a5565b606091505b50509050806106f65760405162461bcd60e51b815260206004820152601760248201527f4152433430323a207472616e73666572206661696c6564000000000000000000604482015260640161036d565b5050505050505050565b336001600160a01b037f000000000000000000000000000000000000000000000000000000000000000016146107485760405162461bcd60e51b815260040161036d906111b7565b60025460ff1661076a5760405162461bcd60e51b815260040161036d906111e2565b6040516302c877c960e21b8152600481018290523060248201526001600160a01b038681166044830152606482018690525f60848301527f00000000000000000000000000000000000000000000000000000000000000001690630b21df249060a401602060405180830381865afa1580156107e8573d5f803e3d5ffd5b505050506040513d601f19601f8201168201806040525081019061080c919061122d565b6108585760405162461bcd60e51b815260206004820152601b60248201527f4152433430323a20696e76616c6964206174746573746174696f6e0000000000604482015260640161036d565b5f805460405163c9b3f8ad60e01b815282916001600160a01b037f0000000000000000000000000000000000000000000000000000000000000000169163c9b3f8ad916108af9130918a918a918d91600401611275565b5f60405180830381865afa1580156108c9573d5f803e3d5ffd5b505050506040513d5f823e601f3d908101601f191682016040526108f091908101906112c1565b915091508181906109145760405162461bcd60e51b815260040161036d9190611053565b5060405163af6f8c1b60e01b8152600481018490527f00000000000000000000000000000000000000000000000000000000000000006001600160a01b03169063af6f8c1b906024015f604051808303815f87803b158015610974575f80fd5b505af1158015610986573d5f803e3d5ffd5b505060408051898152602081018790526001600160a01b038b1693507f056d47bffa7c2cbd89d97598edfaacedc5a898dcd47487959943f507c38bd4d092500160405180910390a250505050505050565b336001600160a01b037f00000000000000000000000000000000000000000000000000000000000000001614610a1f5760405162461bcd60e51b815260040161036d906111b7565b60025460ff16610a415760405162461bcd60e51b815260040161036d906111e2565b5f8054818055604080516020810190915291825290600190610a639082611427565b506002805460ff1916905560405142815281907fcc6590861f6ca0cdac2283eec9e3d822129a66efb8ddf2bf4b239af6c168295f9060200160405180910390a260405163ce8c00b560e01b81526001600160a01b037f0000000000000000000000000000000000000000000000000000000000000000169063ce8c00b590610af69030905f9060019082906004016114e7565b5f604051808303815f87803b158015610b0d575f80fd5b505af1158015610b1f573d5f803e3d5ffd5b5050505050565b60018054610b33906113a6565b80601f0160208091040260200160405190810160405280929190818152602001828054610b5f906113a6565b8015610baa5780601f10610b8157610100808354040283529160200191610baa565b820191905f5260205f20905b815481529060010190602001808311610b8d57829003601f168201915b505050505081565b336001600160a01b037f00000000000000000000000000000000000000000000000000000000000000001614610bfa5760405162461bcd60e51b815260040161036d906111b7565b60025460ff1615610c4d5760405162461bcd60e51b815260206004820152601c60248201527f4152433430323a20636f6e7465787420616c7265616479206f70656e00000000604482015260640161036d565b5f8390556001610c5e828483611598565b506002805460ff1916600117905542600381905560405184917fdde1929d79fef15cb9b8ed0bae129bca92a432de095cce47d10096cdc0fc1ba491610ca7918691869190611652565b60405180910390a2505050565b336001600160a01b037f00000000000000000000000000000000000000000000000000000000000000001614610cfc5760405162461bcd60e51b815260040161036d906111b7565b604051636f2bf8c960e01b81526001600160a01b037f00000000000000000000000000000000000000000000000000000000000000001690636f2bf8c990610d56908b908b908b908b908b908b908b908b90600401611675565b5f604051808303815f87803b158015610d6d575f80fd5b505af1158015610d7f573d5f803e3d5ffd5b505050505050505050505050565b336001600160a01b037f00000000000000000000000000000000000000000000000000000000000000001614610dd55760405162461bcd60e51b815260040161036d906111b7565b5f7f00000000000000000000000000000000000000000000000000000000000000006001600160a01b0316848484604051602401610e1593929190611652565b60408051601f198184030181529181526020820180516001600160e01b0316634f9975a560e01b17905251610e4a91906116cf565b5f604051808303815f865af19150503d805f8114610e83576040519150601f19603f3d011682016040523d82523d5f602084013e610e88565b606091505b5050905080610ee35760405162461bcd60e51b815260206004820152602160248201527f4152433430323a2072656c617943617465676f72794c696d6974206661696c656044820152601960fa1b606482015260840161036d565b50505050565b604051630d47875d60e41b81523060048201525f907f00000000000000000000000000000000000000000000000000000000000000006001600160a01b03169063d47875d090602401602060405180830381865afa158015610f4d573d5f803e3d5ffd5b505050506040513d601f19601f82011682018060405250810190610f7191906116ea565b905090565b6001600160a01b0381168114610f8a575f80fd5b50565b5f8083601f840112610f9d575f80fd5b50813567ffffffffffffffff811115610fb4575f80fd5b602083019150836020828501011115610fcb575f80fd5b9250929050565b5f805f805f60808688031215610fe6575f80fd5b8535610ff181610f76565b945060208601359350604086013567ffffffffffffffff811115611013575f80fd5b61101f88828901610f8d565b96999598509660600135949350505050565b5f5b8381101561104b578181015183820152602001611033565b50505f910152565b602081525f8251806020840152611071816040850160208701611031565b601f01601f19169190910160400192915050565b5f805f60408486031215611097575f80fd5b83359250602084013567ffffffffffffffff8111156110b4575f80fd5b6110c086828701610f8d565b9497909650939450505050565b5f805f805f805f8060c0898b0312156110e4575f80fd5b88359750602089013567ffffffffffffffff80821115611102575f80fd5b61110e8c838d01610f8d565b909950975060408b0135915080821115611126575f80fd5b506111338b828c01610f8d565b909650945050606089013561114781610f76565b92506080890135915060a089013561115e81610f76565b809150509295985092959890939650565b5f805f60408486031215611181575f80fd5b833567ffffffffffffffff811115611197575f80fd5b6111a386828701610f8d565b909790965060209590950135949350505050565b60208082526011908201527020a9219a18191d103737ba1037bbb732b960791b604082015260600190565b60208082526019908201527f4152433430323a206e6f2061637469766520636f6e7465787400000000000000604082015260600190565b80518015158114611228575f80fd5b919050565b5f6020828403121561123d575f80fd5b61124682611219565b9392505050565b81835281816020850137505f828201602090810191909152601f909101601f19169091010190565b6001600160a01b03861681526080602082018190525f90611299908301868861124d565b604083019490945250606001529392505050565b634e487b7160e01b5f52604160045260245ffd5b5f80604083850312156112d2575f80fd5b6112db83611219565b9150602083015167ffffffffffffffff808211156112f7575f80fd5b818501915085601f83011261130a575f80fd5b81518181111561131c5761131c6112ad565b604051601f8201601f19908116603f01168101908382118183101715611344576113446112ad565b8160405282815288602084870101111561135c575f80fd5b61136d836020830160208801611031565b80955050505050509250929050565b848152606060208201525f61139560608301858761124d565b905082604083015295945050505050565b600181811c908216806113ba57607f821691505b6020821081036113d857634e487b7160e01b5f52602260045260245ffd5b50919050565b601f82111561142257805f5260205f20601f840160051c810160208510156114035750805b601f840160051c820191505b81811015610b1f575f815560010161140f565b505050565b815167ffffffffffffffff811115611441576114416112ad565b6114558161144f84546113a6565b846113de565b602080601f831160018114611488575f84156114715750858301515b5f19600386901b1c1916600185901b1785556114df565b5f85815260208120601f198616915b828110156114b657888601518255948401946001909101908401611497565b50858210156114d357878501515f19600388901b60f8161c191681555b505060018460011b0185555b505050505050565b6001600160a01b03858116825284166020808301919091526080604083015283545f918291611515816113a6565b80608087015260a060018084165f811461153657600181146115525761157f565b60ff19851660a08a015260a084151560051b8a0101965061157f565b8a5f5260205f205f5b858110156115765781548b820186015290830190870161155b565b8a0160a0019750505b5050505050508091505082606083015295945050505050565b67ffffffffffffffff8311156115b0576115b06112ad565b6115c4836115be83546113a6565b836113de565b5f601f8411600181146115f5575f85156115de5750838201355b5f19600387901b1c1916600186901b178355610b1f565b5f83815260208120601f198716915b828110156116245786850135825560209485019460019092019101611604565b5086821015611640575f1960f88860031b161c19848701351681555b505060018560011b0183555050505050565b604081525f61166560408301858761124d565b9050826020830152949350505050565b88815260c060208201525f61168e60c08301898b61124d565b82810360408401526116a181888a61124d565b6001600160a01b03968716606085015260808401959095525050921660a09092019190915295945050505050565b5f82516116e0818460208701611031565b9190910192915050565b5f602082840312156116fa575f80fd5b505191905056fea2646970667358221220d66024c37e8b0c9cc6a833617fc8d56a29bf4227ffeab0977a4a082d5424eeae64736f6c63430008180033",
  "linkReferences": {},
  "deployedLinkReferences": {}
}